:020000040800F2
:10000000480800200D4D0008814B0008834B000874
:10001000854B0008874B0008894B00080000000052
:100020000000000000000000000000008B4B0008F2
:100030008D4B0008000000008F4B0008914B00081A
:10004000294D00082D4D0008314D0008354D0008A0
:10005000394D00083D4D0008414D0008454D000850
:10006000494D00084D4D0008514D0008554D000800
:10007000594D00085D4D0008614D0008654D0008B0
:10008000694D00086D4D0008714D0008754D000860
:10009000794D00087D4D0008814D0008854D000810
:1000A000894D00088D4D0008914D0008954D0008C0
:1000B000994D00089D4D0008A14D0008A54D000870
:1000C000A94D0008AD4D0008B14D0008B54D000820
:1000D000B94D0008BD4D00089D4B0008C14D0008FA
:1000E000C54D0008C94D0008CD4D0008D14D000890
:1000F000D54D0008D94D0008DD4D0008E14D000840
:10010000000000000000000000000000E54D0008B5
:10011000E94D0008ED4D0008F14D0008F54D0008CF
:10012000F94D0008FD4D0008014E0008054E00087D
:10013000094E00080D4E00080000000000000000FD
:10014000114E0008154E0008194E0008000000006E
:10015000000000000000000000000000000000009F
:1001600000000000000000001D4E0008214E0008A5
:10017000254E000800000000000000000000000004
:1001800000000000294E000810B40A884240130005
:1001900093EA03130A8892B2DBB21C0294EA122299
:1001A000DBB292EAC3041A00D2B21209D2B26240A0
:1001B0000A8010BC70474FF6FF710180704738B558
:1001C00004000D006846FFF7F6FF2800451E80B2C8
:1001D000002805D069462078FFF7D6FF641CF4E7B5
:1001E000BDF8000032BDF8B504000D0016002F0068
:1001F0003000461E80B2002805D021003878FFF775
:10020000C3FF7F1CF4E7F1BDDFF8D419C0B20C22A4
:1002100002FB00107047DFF8CC19C0B24FF48872AF
:1002200002FB001070472DE9F04706000F009046D2
:100230009946099C0A9DFE20B070F470777186F88B
:1002400006804846C0B2FFF7DFFF8079307148462C
:10025000C0B2FFF7D9FF82464846C0B2FFF7D4FFCD
:100260008079401C8AF806000521F01CFFF7A7FFE3
:100270003080F27892B216F108013000FFF7B3FF38
:1002800031002800C0B2FFF77FFF3088F17889196C
:100290000872308880B2000AF17889194872E4B295
:1002A00014F1080080B2BDE8F0872DE9FE43060096
:1002B0000F00904699460A9C0B9D2800C0B2029000
:1002C0002000C0B201904846C0B2009000234246D0
:1002D000D2B23900C9B23000FFF7A5FFBDE8FE83F6
:1002E000F8B504000D00E878861DAF1C3200390017
:1002F000200000F09DFCE8780019811D2888087016
:10030000288880B2000A4870E878083080B2F2BDD0
:1003100010B504002000FFF74EFF10BD38B50400F3
:100320000D0021002800C0B2FFF72EFF31BD2DE9DE
:10033000F04704000D0016001F00DDF820805FF07C
:10034000000900202870E87800280FD0022819D072
:100350000CD304282FD037D3062847D03DD3082804
:1003600065D052D30A2877D076D390E0F6B2FE2E2D
:1003700007D10220E8700020E070A6702000FFF78F
:10038000C7FF84E0287800280AD06878401C68708D
:10039000A878401CA870002028700120E87009E0AF
:1003A000E670002028713100C9B22000FFF7B6FFC7
:1003B0000420E8706BE026713100C9B22000FFF71D
:1003C000ADFF0320E87062E066713100C9B2200021
:1003D000FFF7A4FF0520E87059E0A6713100C9B20B
:1003E0002000FFF79BFF0620E87050E0E671310027
:1003F000C9B22000FFF792FFE078002802D1082060
:10040000E87001E00720E87041E02879411C29717B
:10041000C0B2001906723100C9B22000FFF77EFF9A
:100420002879E178884201D10820E8702FE0DFF8D0
:10043000B807E179095C2000FFF770FFF6B2207879
:10044000C0B2864202D00A20E87001E00920E870BC
:100450002879001906721AE0E8780A2806D0F6B260
:10046000208880B2000A80B2864202D00220287022
:1004700001E0012028700120E870287900194672F7
:100480004FF4887A52462100380000F0D1FB19F170
:1004900001092878012809D1207968712889002864
:1004A00001D1002068812889401C2881E078F870FB
:1004B000E87888F80300287988F804006879401CF7
:1004C00088F805002889A8F80800A878A8F80A0084
:1004D0000020A8702878022808D128790019007A0D
:1004E00029790919497A50EA012038802878BDE82D
:1004F000F0872DE9F04182B004000D0016001F00C6
:100500002000C0B2FFF780FE80462000C0B2FFF797
:1005100082FE009733002A00D2B24146FFF707FF60
:10052000BDE8F6812DE9F04704000D0016001F001C
:100530003B0032002900C9B22000C0B2FFF7D9FF4A
:1005400080465FFA88F8B8F1020F22D12000C0B2CD
:10055000FFF761FE81462000C0B2FFF755FE8246DC
:100560009AF80200401C8AF8020000208AF8000075
:1005700001208AF80300EDB2FE2D08D102208AF88E
:100580000300002089F803004846FFF7C1FE002061
:1005900001E04046C0B2BDE8F087F8B504000D00A8
:1005A0001600002D06D100273A003100200000F08F
:1005B0007BFB04E032002900200000F039FBF1BD94
:1005C0002DE9F84304000D00E078002801D1E67819
:1005D00000E0012601275FF00008424639002800AC
:1005E00000F062FBF6B214F1080932004946280017
:1005F00000F01EFBBDE8F1832DE9F84304000D0077
:10060000E078052801DAE67800E0052605275FF0A6
:10061000000842463900280000F046FBF6B214F10B
:10062000080932004946280000F002FBBDE8F183CA
:100630002DE9FB4FB6B01700439C449D459EDDF865
:100640001881BDF80801ADF80800ADF80A40ADF812
:100650000C509DF8E0008DF80E008DF80F60C82258
:10066000414604A8FFF799FF5FF0D0090DF1080A91
:1006700017F1080B4A465146584600F0D9FA0420B3
:10068000F871BC200190D0200090D0239DF8DC2090
:100690009DF8D8103800FFF708FE39B0BDE8F08F9C
:1006A000F0B585B004000D0016001F0017F108001A
:1006B0000490F8790390B88802907888019038887F
:1006C0000090BB7932002900C9B22000C0B2FFF708
:1006D000AFFF05B0F0BD2DE9F84304000D00E07850
:1006E000062801DAE67800E0062606275FF0000813
:1006F00042463900280000F0D7FAF6B214F1080992
:1007000032004946280000F093FABDE8F1832DE954
:10071000F84304000D00E078042801DAE67800E0F0
:10072000042604275FF0000842463900280000F044
:10073000BBFAF6B214F1080932004946280000F06D
:1007400077FABDE8F1832DE9F84304000D00E07865
:10075000022801DAE67800E0022602275FF00008AE
:1007600042463900280000F09FFAF6B214F1080959
:1007700032004946280000F05BFABDE8F1832DE91C
:10078000F84304000D00E078022801DAE67800E082
:10079000022602275FF0000842463900280000F0D8
:1007A00083FAF6B214F1080932004946280000F035
:1007B0003FFABDE8F1832DE9F84304000D00E0782D
:1007C000082801DAE67800E0082608275FF000082C
:1007D00042463900280000F067FAF6B214F1080921
:1007E00032004946280000F023FABDE8F1832DE9E4
:1007F000F84304000D00E078022801DAE67800E012
:10080000022602275FF0000842463900280000F067
:100810004BFAF6B214F1080932004946280000F0FC
:1008200007FABDE8F1832DE9FB4F2DED048B8AB06B
:100830009046B0EE408AF0EE608AB0EE419A1C9C81
:100840001D9D1E9E1F9F8DED028ACDED038A8DEDAD
:10085000049ABDF84000ADF81400BDF86C00ADF886
:100860001600ADF81840ADF81A50ADF81C60ADF8A0
:100870001E709DF868008DF820005FF019090DF1D9
:10088000080A18F1080B4A465146584600F0D0F9BC
:10089000962088F807002A2001901920009019233B
:1008A0009DF83C209DF838104046FFF7FEFC0AB04A
:1008B000BDEC048BBDE8FE8FF0B587B004000D00E1
:1008C00016001F00F88A0590B88A0490788A039071
:1008D000388A0290F8890190387E009097ED021ACC
:1008E000D7ED010A97ED000AB7F90C303200290064
:1008F000C9B22000C0B2FFF796FF07B0F0BDBFF34A
:100900004F8FBA48006810F4E060B9490843B7490E
:100910000860BFF34F8F00BFFDE7000010B58EB039
:1009200004000BABB34A2100C9B20020FFF7FAFD67
:10093000002879D0AF48C079022809D104A9AD4870
:10094000FFF73EFE9DF81000012801D100F06EF87F
:10095000A848C079032811D105A9A648FFF74CFE85
:100960009DF81800012802D100F00DFA5CE09DF816
:100970001800022858D1FFF7C2FF55E09D48C07902
:10098000652810D169469B48FFF7C1FE9DED000A1E
:10099000DFED920AB4EE600AF1EE10FA44DA9648FE
:1009A0000099016040E09348C079642808D109A902
:1009B0009048FFF790FEDDE9090100F08EFC33E07E
:1009C0008C48C079662808D103A98A48FFF7BBFE86
:1009D000BDF80C008949088026E08648C07969285E
:1009E00009D107A98348FFF7E6FE07A890EC020AA1
:1009F00000F0FEFD18E07F48C079672808D102A901
:100A00007C48FFF7BCFEBDF8080000F0E1FC0BE0FD
:100A10007848C0796A2807D101A97648FFF7E7FE30
:100A2000BDF8040000F0FDFC0EB010BD00B5CDB067
:100A30007348006801907348006800906E48006831
:100A400002906E480088ADF80E006F480068ADF85F
:100A50000C006E480088ADF810006D480088ADF8B5
:100A600012006C4800788DF818006B480088ADF8CB
:100A700014006A480088ADF816006B4608AA0121E8
:100A80000120FFF719FF08A800F002F84DB000BDE3
:100A900030B5C3B00400002C01D100200FE02100CC
:100AA0006846FFF71DFC0500ADB2B5F5847F01DB9C
:100AB000002004E0290089B2684600F047FE43B0F8
:100AC00030BD10B556480078022835D15548808889
:100AD0005449498888422CD2C824524880885149B8
:100AE0004988491E88420CD14E48C068C821B0FBD5
:100AF000F1F201FB12000400E4B2002C01D1C82085
:100B00000400E4B2220092B24648818845488068D9
:100B100000F013F8C0B200280ED042498968E4B250
:100B20006118404A91603F498988491C3D4A91803B
:100B300002E000203A49087010BD2DE9F041F8B0FC
:100B400004000D001600374800788DF8160135486E
:100B50004088ADF814013348C088ADF8100130006A
:100B60008DF817012F488088ADF81201C8270DF5C0
:100B70008C783A002100404600F05AF844AB6A46AF
:100B800001210120FFF78CFD6846FFF781FF78B057
:100B9000BDE8F08101202249087001202149087038
:100BA0002148204988601F48C088401C1D49C880D2
:100BB0001E48008880001B49C8601C4800888000CF
:100BC000C730C821B0FBF1F0164948800020154914
:100BD0008880022012490870704700000100984187
:100BE0008C160020F80C00208C4900080CED00E069
:100BF0000400FA05381500200400002046000020FB
:100C000004170020000000203804004030170020A6
:100C10003217002036170020281700202E1700203A
:100C20003A170020DC16002048080020440000206D
:100C300062B38B0708D0521E11F8013B00F8013B4C
:100C400000F024808B07F6D1830740F0208000BF9E
:100C5000103A07D330B4B1E83810103AA0E8381091
:100C6000F9D230BC530724BFB1E80810A0E808103F
:100C700044BF51F8043B40F8043BD20724BF31F88D
:100C8000022B20F8022B44BF0B7803707047083A00
:100C900007D3B1E80810083A40F8043B40F804CB09
:100CA000F7D25307E4E7000062F30F2262F31F421A
:100CB000401810F0030308D0C91A1FD3DB0748BF40
:100CC00000F8012D28BF20F8022D130030B414467F
:100CD0001546103928BF20E93C00FAD8490728BF3B
:100CE00020E90C0048BF40F8042D890028BF20F8F7
:100CF000022D48BF00F8012D30BC7047C91818BF3D
:100D000000F8012DCB0728BF00F8012D7047000027
:100D100031483249816019202F49888100202E49AD
:100D200088732D482E49416032202B4908822A4879
:100D300000214161284800218161002026498883E3
:100D400000202549C8834AF6CD30234908807047E2
:100D500010B5244C20222049200000F070FD1E48D0
:100D600000884AF6CD31884201D0FFF7D1FF10BD8F
:100D700010B53E2000F01EFD1A4C2022164920001E
:100D800000F033FD10BD80B5134817490968816034
:100D90001648008810498881154800780E498873E4
:100DA0000D48144909684160134800880A490882BF
:100DB0000948124909684161074811490968816178
:100DC00010480088044988830F4800880249C88376
:100DD000FFF7CEFF01BD0000BC1600200000B442AA
:100DE0000000204100F00108000000204200002027
:100DF00036170020040000204600002010170020B5
:100E0000141700202C1700202A17002080B500F0AE
:100E100025F800F097F800F0B9F800F03BF9DFF89A
:100E200014058068DFF810150860DFF80805808970
:100E3000DFF808150880DFF8FC04807BDFF8001578
:100E40000870DFF8FC040078002806D1DFF8EC0415
:100E5000B0F9000000B200F035FA01BD00B589B06C
:100E60000121022001F060F801215FF4003001F05F
:100E70004CF8684601F0D8F9DFF8C80401F0EAF848
:100E80000020ADF80000DFF8C00400680121B0FBCD
:100E9000F1F0DFF8B814B0FBF1F0401E0190002033
:100EA000ADF808000020ADF802006946DFF89404B0
:100EB00001F06CF90121DFF88C0401F0C1F903A8FD
:100EC00001F04AFA602003900120ADF8100001986B
:100ED0001E21B0FBF1F005900020ADF8180003A929
:100EE000DFF8600401F0C8F90821DFF8580401F0C8
:100EF00047FA03A801F030FA602003900120ADF812
:100F0000100001980A3805900020ADF8180003A9D8
:100F1000DFF8300401F0F0F90121DFF8280401F0D6
:100F200039FA8021DFF81C0401F060FA7021DFF843
:100F3000140401F03CFA0121DFF8080401F08EF9F5
:100F400009B000BD00B583B0684601F0B9FA802051
:100F5000009002208DF8040000208DF80600022089
:100F60008DF8050000208DF8070069465FF090407D
:100F700001F046FA022207215FF0904001F0B6FA34
:100F80000121DFF8C00301F005FA07BD00B58FB0FD
:100F90004FF4887000F09BFF01215FF0805000F05B
:100FA000B4FF684601F08CFA03208DF8040000209D
:100FB0008DF80700042000906946DFF8940301F0E3
:100FC0001FFADFF8900301F0BFFA0121DFF8840374
:100FD00001F077FB4FF47A7001F002FE0021DFF898
:100FE000740301F05AFBDFF86C0301F051FBDFF8EA
:100FF000640301F05AFB0028F9D102A801F030FB8C
:10100000002002905FF4803003904FF40040049081
:101010000020059000208DF8180002A9DFF83403A5
:1010200001F0EAFA07A801F0D6FA002008900020A3
:1010300007904FF4707009904FF480600A90002080
:101040000B904FF480500C9000200D9001208DF8F3
:10105000380007A9BF4801F09EFA002301220C21A5
:10106000BC4801F03FFB0021BA4801F0E7FB012139
:10107000B84801F0D6FB0121B64801F0FCFA012185
:10108000B44801F0E3FB0028F9D0B24801F0C4FBFA
:101090000FB000BD00B58BB00121022000F035FF7C
:1010A000AD4801F0E5FD684601F086FEAB480090D2
:1010B000AB480190002002902120ADF80C000020E8
:1010C0000490802005904FF4807006904FF480606B
:1010D0000790002008904FF40050099000200A90DB
:1010E00069469D4801F049FE01219B4801F07BFEC5
:1010F0000BB000BD80B50021974801F074FE21209F
:1011000098490860964898490860984801F08EFE12
:101110000021904801F0AFFA10218E4801F0A2FBA7
:1011200001218D4801F05FFE01218A4801F0A3FAF8
:10113000884801F071FB01BD10B52DED028B00F068
:101140009EF80400200080B200F0AAF8B0EE408AB9
:10115000874880ED008A854801F053FE012801D1BF
:10116000FFF7C8FF76480078002801D000F003F8A8
:10117000BDEC028B10BD80B57E480078002811D1EF
:101180007B4890ED000A6C48D0ED000AB4EE600A8E
:10119000F1EE10FA02D500F050F84DE0012075494B
:1011A000087049E073480078012820D1724800682F
:1011B0007249096888423FD36F480068C8306F4958
:1011C00008605D4890ED000A6948D0ED000AB4EE71
:1011D000600AF1EE10FA02D500F040F82CE0684801
:1011E00063490968016002206249087024E061488F
:1011F0000078022820D1624890ED000AF8EE000A3B
:1012000030EE200A5A48D0ED000AF4EE400AF1EE22
:1012100010FA03D50020574908700DE0464890EDBC
:10122000000A5348D0ED000AB4EE600AF1EE10FA5D
:1012300002D501204F49087001BD80B55148008892
:1012400042280ADA4F480088401C4E4908804D4821
:10125000B0F9000000B200F035F801BD80B5494892
:1012600000880A280ADB47480088401E4549088054
:101270004448B0F9000000B200F024F801BD00209D
:101280000121C9B2212907DA354AC9B232F8112041
:1012900010FA82F0491CF4E7400980B27047000060
:1012A00080B200EE100AB8EE400ADFED1F0A20EE11
:1012B000200ADFED1E0A80EE200ADFED1D0A20EE77
:1012C000200A704700B230490968884204D200B24F
:1012D0002E4908602B490880704703B581B0BDF9DD
:1012E000080000280BD4BDF90800FFF7EBFF002031
:1012F00013490870BDF808001049088013E09DEDFF
:10130000010AB5EE400AF1EE10FA0CDD0A48019927
:1013100001601B48084909680160022015490870EE
:1013200001200749087007BD5C8F524000F07F45DF
:101330000000CE42BC160020000000204200002029
:10134000361700200004004038000020A08601006D
:101350000004004800010050080402404001005011
:10136000481600200C040240140402400200001041
:101370000417002037170020241700200C17002026
:1013800008170020400000202C04004038040040D2
:101390009E4840699E4908609C4880699D49086054
:1013A0009A48808B9C4908809848C08B9B4908804C
:1013B000704780B59A480078002806D000F013F8EE
:1013C000FFF7E8FB00209649087000F034F801BDF3
:1013D00080B2B0F5967F02DD4FF4967108000121CE
:1013E0008F4A1170704710B500248E480088A4B24F
:1013F000844215D201F0B7FD012001F02FFC01F06D
:10140000BCFD894800888949A4B221F82400884895
:1014100000888649A4B211EB84014880641CE4E78B
:1014200010BD84490978002904D10121814A117035
:101430007A490880704710B57E480078012806D1A7
:101440006420FFF7C5FF02207A49087027E0794839
:101450000078022823D17248007800281FD1032089
:101460007449087000F01CF80400714801882000DD
:1014700080B200F07BF810EE100A01F0D3FD41ECD1
:10148000100B01F0F7FD51EC100B01F019FE0400F8
:10149000200080B200F01AF800206649087010BDE4
:1014A000002001215F4A128889B2914207D25F4A27
:1014B00089B232F8212010FA82F0491CF2E759492A
:1014C0000988491EB0FBF1F080B2704710B50400E6
:1014D0005248008800EE100AB8EE400AF2EE0D0AFB
:1014E00080EE200A01F014FEBDEEC00A10EE100AD4
:1014F00080B2A4B2A04203D2211A474A118002E06E
:101500000021454A118010BD80B52DED028B484861
:1015100001884548008800F029F8B0EE408AB0EE16
:10152000480A00F005F844490880BDEC028B01BD73
:1015300080B52DED028BB0EE408A3748008800EE72
:10154000100AB8EE400A38EE400AF2EE0D0A60EEDC
:10155000208AB0EE680A01F0DBFDBDEEC00A10EE95
:10156000100A80B2BDEC028B02BD000038B52DED33
:10157000028B04000D00264890ED000AB5EE400AEB
:10158000F1EE10FA02D19FED200A2EE0ADB200EE8E
:10159000105AB8EE400A1E48D0ED000A30EEC00ADC
:1015A0001C48D0ED000A80EE200A10EE100A01F06F
:1015B00039FD41EC100B01F0FFFD51EC100B01F077
:1015C00003FE08EE100AA4B200EE104AB8EE400A7C
:1015D00030EE480A01F09CFDBDEEC00A10EE100A84
:1015E00080B200EE100AB8EE400ABDEC028B31BDAD
:1015F000B5EE400AF1EE10FA05D0054880ED000A7C
:101600000448C0ED000A704700000000BC1600202E
:1016100010170020141700202C1700202A17002074
:101620003817002044000020301700204808002010
:10163000321700203917002028170020012110F050
:101640001F029140524A40B2430942F823107047AA
:1016500000B589B000F050F801215FF4003000F0CF
:1016600063FC00208DF8060001208DF807000220A1
:101670008DF804000820009002208DF805006946CE
:10168000444800F0BDFE102000906946414800F03B
:10169000B7FE072203213F4800F028FF072204215C
:1016A0003C4800F023FF3C4801F0D6FD02A801F0C1
:1016B0009FFE3A48029000200390002004900020F2
:1016C0000590002007900C20069002A9324801F0F6
:1016D0000BFE0121304801F099FE4FF480512E4855
:1016E00001F0C8FE01222E492B4801F0A0FE262061
:1016F000FFF7A4FF09B000BD80B54FF4007229497F
:10170000294801F007FF4FF400722849284801F0EA
:1017100001FF01BD80B56946234801F050FF002854
:1017200004D09DF80000FFF7F9F8F4E700F001F8A5
:1017300001BD80B569461E4801F041FF002804D074
:101740009DF8000000F014F8F4E701BD38B504007E
:101750000D002A0092B22100154801F008FF32BDA9
:1017600010B504002100C9B20F4801F0DCFE10BD25
:1017700010B504008021084801F084FE0028F9D04B
:10178000E4B2210089B2044801F04DFE10BD000012
:1017900000E100E0000400480044004020A10700F0
:1017A0000501050038110020EC1600203813002038
:1017B000F8160020F8B5040001F047FFEFF31080A1
:1017C000050072B6342001F0ACFFE4B24FF40060C3
:1017D00000FB04F010F10066300001F04FFF07003D
:1017E00085F3108801F041FFF1BD2DE9F0410400BF
:1017F0000D00160001F029FF342001F092FF5FF088
:1018000000081FFA88F8B6B2B8EB560F13D2EFF300
:101810001080070072B61FFA88F835F818102000FB
:1018200001F05AFFA41C87F31088C0B2042802D12B
:1018300018F10108E5E701F018FFBDE8F08170B587
:1018400004000D001600B6B2320021002800FFF798
:10185000EFF970BDDFF8A807006850F00100DFF86D
:10186000A0170860DFF89C070068DFF89C170840A5
:10187000DFF890170860DFF888070068DFF88C173A
:101880000840DFF87C170860DFF87407006830F460
:101890008020DFF86C170860DFF86807006830F414
:1018A000FE00DFF860170860DFF864070068800B4F
:1018B0008003DFF85C170860DFF858070068DFF87E
:1018C00058170840DFF84C1708600020DFF84C1765
:1018D000086070470021DFF848271170DFF84017D3
:1018E0000870704738B500200090002400251120B2
:1018F00000F056FB05000098401C00900098B0F5E1
:10190000A04F02D0EDB2002DF1D0112000F048FB25
:10191000002802D00120040001E000200400200083
:10192000C0B232BDDFF8DC26126832F47412DFF880
:10193000D4361A60DFF8CC26126851EA00031A4345
:10194000DFF8C0361A607047C0B2DFF8DC160860F6
:1019500070470021DFF8AC26126811007FF00742C3
:101960001140C0B251EA0061DFF89826116070475B
:101970000021DFF8902612681100890889000143D0
:10198000DFF8802611607047DFF87806006810F0F5
:101990000C0070472DE9F0410021002200230024B3
:1019A0000025002600275FF0000CDFF858E6DEF87F
:1019B00000E01EF00C0E71468E46BEF1000F06D000
:1019C000BEF1040F08D0BEF1080F0AD033E0DFF8F3
:1019D0005CE6C0F800E032E0DFF850E6C0F800E076
:1019E0002DE0DFF820E6DEF800E01EF4701E7246FF
:1019F000DFF810E6DEF800E01EF4803E7346920C3D
:101A0000921C002B05D1DFF828E60EFB02FE76467D
:101A10000FE0DFF8FCE5DEF800E01EF00F0E1EF12F
:101A2000010E7446DFF804E6BEFBF4FE02FB0EFE78
:101A30007646066003E0DFF8F4E5C0F800E0DFF882
:101A4000C4E5DEF800E01EF0F00E71460909DFF88B
:101A5000E4E511F80EE0F446D0F800E03EFA0CFEA2
:101A6000C0F804E0DFF89CE5DEF800E01EF4E06E6C
:101A70007146090ADFF8BCE511F80EE07546D0F8AA
:101A800004E03EFA05FEC0F808E0DFF878E5DEF88D
:101A900000E01EF4605E7146C90ADFF898E511F8AF
:101AA0000EE07746D0F804E03EFA07FEC0F80CE0FE
:101AB000DFF85CE5DEF800E01EF4F87E7146090907
:101AC000DFF874E511F00F083EF818E075465FEA9C
:101AD000C16E06D5002D04D0B6FBF5FEC0F810E0AF
:101AE00003E0D0F800E0C0F810E0DFF824E5DEF80D
:101AF00000E01EF4785E7146490ADFF83CE511F01B
:101B00000F083EF818E075465FEAC16E06D5002D55
:101B100004D0B6FBF5FEC0F814E003E0D0F800E016
:101B2000C0F814E0DFF8ECE4DEF800E05FEACE6E27
:101B300004D4DFF8F8E4C0F818E003E0D0F800E0DF
:101B4000C0F818E0DFF8CCE4DEF800E05FEA8E6E63
:101B500004D4DFF8D8E4C0F81CE003E0D0F800E0DB
:101B6000C0F81CE0DFF8ACE4DEF800E05FEA4E6E9F
:101B700004D4DFF8B8E4C0F820E003E0D0F800E0D7
:101B8000C0F820E0DFF88CE4DEF800E05FEACE5E2B
:101B90000AD5D0F800E0B64506D1674504D15FEA22
:101BA000460EC0F824E003E0D0F80CE0C0F824E0D2
:101BB000DFF860E4DEF800E05FEACE4E0AD5D0F848
:101BC00000E0B64506D1674504D15FEA460EC0F88D
:101BD00028E003E0D0F80CE0C0F828E0DFF834E4B7
:101BE000DEF800E05FEA8E5E0AD5D0F800E0B64588
:101BF00006D1674504D15FEA460EC0F82CE003E049
:101C0000D0F80CE0C0F82CE0DFF808E4DEF800E0E3
:101C10005FEA4E5E0AD5D0F800E0B64506D16745CA
:101C200004D15FEA460EC0F84CE003E0D0F80CE0C7
:101C3000C0F84CE0DFF8DCE3DEF800E05FEA0E5EBF
:101C40000AD5D0F800E0B64506D1674504D15FEA71
:101C5000460EC0F850E003E0D0F80CE0C0F850E0C9
:101C6000DFF8B0E3DEF800E05FEA8E4E0AD5D0F888
:101C700000E0B64506D1674504D15FEA460EC0F8DC
:101C800054E003E0D0F80CE0C0F850E0DFF884E363
:101C9000DEF800E05FEA0E4E0AD5D0F800E0B64567
:101CA00006D1674504D15FEA460EC0F858E003E06C
:101CB000D0F80CE0C0F858E0DFF858E3DEF800E0B8
:101CC0001EF0030F04D1D0F80CE0C0F838E028E093
:101CD000DFF840E3DEF800E01EF0030EBEF1010F76
:101CE00004D1D0F800E0C0F838E01AE0DFF824E3CF
:101CF000DEF800E01EF0030EBEF1020F04D14FF437
:101D0000004EC0F838E00CE0DFF808E3DEF800E051
:101D10001EF0030EBEF1030F03D1DFF810E3C0F88D
:101D200038E0DFF8F0E2DEF800E01EF4403F04D1D6
:101D3000D0F808E0C0F83CE028E0DFF8D8E2DEF8B0
:101D400000E01EF4403EBEF5803F04D1D0F800E034
:101D5000C0F83CE01AE0DFF8BCE2DEF800E01EF478
:101D6000403EBEF5003F04D14FF4004EC0F83CE0C9
:101D70000CE0DFF8A0E2DEF800E01EF4403EBEF525
:101D8000403F03D1DFF8A4E2C0F83CE0DFF884E292
:101D9000DEF800E01EF4402F04D1D0F808E0C0F8CF
:101DA00040E028E0DFF86CE2DEF800E01EF4402EB0
:101DB000BEF5802F04D1D0F800E0C0F840E01AE072
:101DC000DFF850E2DEF800E01EF4402EBEF5002FF2
:101DD00004D14FF4004EC0F840E00CE0DFF834E2EC
:101DE000DEF800E01EF4402EBEF5402F03D1DFF8F0
:101DF0003CE2C0F840E0DFF81CE2DEF800E01EF450
:101E0000401F04D1D0F808E0C0F844E028E0DFF833
:101E100004E2DEF800E01EF4401EBEF5801F04D18F
:101E2000D0F800E0C0F844E01AE0DFF8E8E1DEF8BE
:101E300000E01EF4401EBEF5001F04D14FF4004E1A
:101E4000C0F844E00CE0DFF8CCE1DEF800E01EF47E
:101E5000401EBEF5401F03D1DFF8D0E1C0F844E0DA
:101E6000DFF8B0E1DEF800E01EF4400F04D1D0F856
:101E700008E0C0F848E028E0DFF898E1DEF800E08C
:101E80001EF4400EBEF5800F04D1D0F800E0C0F87B
:101E900048E01AE0DFF87CE1DEF800E01EF4400ED6
:101EA000BEF5000F04D14FF4004EC0F848E00CE03E
:101EB000DFF860E1DEF800E01EF4400EBEF5400FF2
:101EC00003D1DFF868E1C0F848E0BDE8F081002107
:101ED000020F1100002908D0DFF83421126832F413
:101EE0007852DFF82C311A6007E0DFF824211268FD
:101EF00032F4F872DFF818311A60DFF81421126832
:101F00000243DFF80C311A607047C9B2002905D0CE
:101F10004A4A12680243494B1A6004E0474A126871
:101F20008243464B1A607047C9B2002905D0444A23
:101F300012680243424B1A6004E0414A126882432D
:101F40003F4B1A607047C9B2002905D03D4A12685C
:101F500002433C4B1A6004E03A4A12688243394B10
:101F60001A607047C9B2002905D0374A1268024387
:101F7000354B1A6004E0344A12688243324B1A60CF
:101F80007047C9B2002905D0304A126802432F4B6E
:101F90001A6004E02D4A126882432C4B1A60704785
:101FA00010B402000023002400201100C9B2490926
:101FB000C9B20B00002B03D1114909680C000EE0D7
:101FC000012B03D1174909680C0008E0042B03D149
:101FD0000C4909680C0002E01D4909680C00D2B2E6
:101FE00012F01F010B002100D940C90702D50121C1
:101FF000080001E000210800C0B210BC70470000DA
:10200000001002400410024000C0FFF8FFFFF6FE7F
:102010002C10024030100240CCEC000F081002409F
:1020200002100240201002406000424200127A007A
:1020300000093D0008000020180000201410024094
:102040001C100240281002400C10024010100240E8
:102050002410024010B50400DFF8200384420AD1A6
:1020600001214FF40060FFF77DFF00214FF4006075
:10207000FFF778FF89E0B4F1804F08D101210120FA
:10208000FFF77FFF00210120FFF77BFF7DE0DFF8F6
:102090003403844208D101210220FFF772FF00219E
:1020A0000220FFF76EFF70E0DFF81C03844208D1C6
:1020B00001210420FFF765FF00210420FFF761FFE5
:1020C00063E0DFF80803844208D101211020FFF704
:1020D00058FF00211020FFF754FF56E0DFF8F00210
:1020E000844208D101212020FFF74BFF002120204E
:1020F000FFF747FF49E0DFF8DC0284420AD1012103
:102100004FF40050FFF72EFF00214FF40050FFF76F
:1021100029FF3AE0DFF8C00284420AD101215FF4CE
:102120008030FFF71FFF00215FF48030FFF71AFFB8
:102130002BE0DFF8A80284420AD101215FF40030CD
:10214000FFF710FF00215FF40030FFF70BFF1CE0EA
:10215000DFF88C0284420AD101215FF48020FFF76E
:1021600001FF00215FF48020FFF7FCFE0DE0DFF8A7
:102170007402844209D101215FF48010FFF7F2FE5E
:1021800000215FF48010FFF7EDFE10BD00220388F0
:102190001A00DFF8E831984212D0DFF8383298425E
:1021A0000ED0B0F1804F0BD0DFF81832984207D034
:1021B000DFF81432984203D0DFF82832984204D175
:1021C0004FF68F731A404B881A43DFF8003298425B
:1021D00008D0DFF8FC31984204D04FF6FF431A4094
:1021E0000B891A4302804B68C3620B880385DFF8B2
:1021F0008C31984213D0DFF8DC3198420FD0DFF8F1
:10220000D83198420BD0DFF8D431984207D0DFF8AC
:10221000D031984203D0DFF8CC31984201D14B89BC
:1022200003860123436170475FF0FF314160002165
:1022300001800021018100214180002141817047FE
:10224000C9B2002904D0028852F08002028004E062
:1022500002884FF67F731A4002807047C9B2002986
:1022600004D0028852F00102028004E002884FF696
:10227000FE731A400280704730B40023002400220D
:10228000056A35F010050562056A2C0045682A00CC
:1022900085692B00DFF850512B4033F440730D68F3
:1022A00053EA052334F020048D8954EA05148D88FF
:1022B00054EA0514314DA84203D0DFF81851A84262
:1022C00013D134F08004CD8954EA051434F040046D
:1022D000CD8854EA051432F4806232F400620D8A2B
:1022E00052EA85024D8A52EA8502426083618D6816
:1022F0008563046230BC704730B4002300240022A0
:10230000056A35F480550562056A2C0045682A0087
:10231000C5692B0033F4E04333F440730D6853EA8E
:10232000052334F400548D8954EA05348D8854EA29
:102330000534124DA84203D0DFF89850A84204D1CA
:1023400032F480420D8A52EA85124260C3618D6880
:102350000564046230BC7047002101600021818067
:102360000021C18000218160002181810021C18183
:10237000002101820021418270470000002C0140B1
:10238000002283691A0032F4006289B252EA012203
:1023900082617047C9B2002904D0426C52F40042F5
:1023A000426403E0426C5204520C4264704742683B
:1023B0004FF68F731A404260426889B20A43426006
:1023C000704700000004004000080040001000407A
:1023D000001400400034014000400140004401402E
:1023E0000048014000500140FF8FFFFE82684FF619
:1023F0007F731A408260826889B20A4382607047A4
:10240000F0B4002200230024002500263200102A08
:1024100054D20126964033000E681E4034009C4280
:102420004AD10E79012E02D00E79022E1FD1866874
:10243000032794465FFA8CFC5FEA4C0C17FA0CF702
:10244000BE43866086684F7994465FFA8CFC5FEAEB
:102450004C0C17FA0CF73E4386608688012797409C
:10246000BE43868086888F7997403E438680066883
:10247000032794465FFA8CFC5FEA4C0C17FA0CF7C2
:10248000BE43066006680F7994465FFA8CFC5FEAEB
:102490004C0C17FA0CF73E430660C668350003265D
:1024A0001700FFB27F00BE40B543CE791700FFB2E0
:1024B0007F00BE403543C560521CA8E7F0BC7047A2
:1024C0004FF6FF710160002101710221417100216D
:1024D00081710021C171704701857047D2B2002A15
:1024E00002D089B2816100E001857047F0B4002319
:1024F0000024D2B211F00705EDB2AD0012FA05F5D5
:102500002B0089B2CD1010EB850589B2CE1010EBEF
:102510008606366A0F2711F0070C5FFA8CFC5FEA1B
:102520008C0C17FA0CF7BE432E6289B2CD1010EB5B
:1025300085052D6A1D432C0089B2CD1010EB850551
:102540002C62F0BC7047000010B50400B4F1A04F3D
:1025500003D0DFF8140384420AD101215FF08050D8
:10256000FFF7F1FC00215FF08050FFF7ECFC11E079
:10257000DFF8F802844203D0DFF8F402844209D184
:1025800001215FF00050FFF7DEFC00215FF00050FA
:10259000FFF7D9FC10BD10B40022C3681A00DFF8A1
:1025A000D4321A400B684C6823438C682343CC68B0
:1025B00023430C6923434C6923438C6923431A4307
:1025C000C260036B1A00120912010B7F5B1E1A43D3
:1025D000026310BC704700210160002141600021AE
:1025E00081600021C1600021016100214161002161
:1025F000816101210177704710B40022B0F1A04F32
:1026000003D0DFF86432984207D1DFF86C321B68E0
:102610001A00DFF868321A4006E0DFF864321B68FF
:102620001A00DFF858321A400B684C6823438C6854
:102630002343CC6853EA04330C7C53EA04231A4343
:10264000B0F1A04F03D0DFF82032984203D1DFF879
:1026500028321A6002E0DFF828321A6010BC704796
:102660000021016000214160002181600021C160E2
:10267000002101747047C9B2002904D0826852F069
:102680000102826003E0826852F0020282607047B9
:10269000816851F0004181607047826832F0804269
:1026A000826082680A4382607047010000208A6865
:1026B000002A02D50122100001E000221000C0B261
:1026C0007047826832F040528260C9B2002904D05B
:1026D000826852F08052826003E0826852F00052B9
:1026E00082607047F0B400250024D2B2052A12DAC5
:1026F000066B35001F26062712FB07F7BE40340085
:10270000A543C9B2062612FB06F611FA06F63400F6
:10271000254305634AE0D2B20A2A15DA466B350032
:102720001F26571F5FF0060C17FB0CF7BE40340046
:10273000A543C9B2561F062716FB07F611FA06F67F
:1027400034002543456331E0D2B20F2A17DA866B95
:1027500035001F26B2F10A075FF0060C17FB0CF7D5
:10276000BE403400A543C9B2B2F10A06062716FBE3
:1027700007F611FA06F634002543856316E0C66BAA
:1027800035001F26B2F10F075FF0060C17FB0CF7A0
:10279000BE403400A543C9B2B2F10F06062716FBAE
:1027A00007F611FA06F634002543C563C9B20A29B3
:1027B0001ADB866935000726B1F10A075FF0030CC2
:1027C00017FB0CF7BE4034008669A6438661866914
:1027D000DBB2B1F10A075FF0030C17FB0CF713FA39
:1027E00007F73E43866115E04669350038264F1EDF
:1027F0005FF0030C17FB0CF7BE4034004669A6439C
:1028000046614669DBB2032711FB07F713FA07F7A6
:102810003E434661F0BC7047816851F0040181601D
:102820007047C9B2002904D0C26852F00102C260E8
:1028300003E0C26852085200C2607047C26832F0BA
:102840000202C260C2680A43C260704702000020F0
:1028500013680B4202D00123180001E00023180086
:10286000C0B2704701607047000100500004005082
:102870000005005007C0FFFD08030050E010FCFFFA
:102880000807005010B440B2002808D50A01E84BF0
:1028900040B210F00F04E31803F8042C03E00A011F
:1028A000E44B40B2C25410BC704710B50400601E27
:1028B000B0F1807F01D301200EE0601EDE49086088
:1028C0000F215FF0FF30FFF7DDFF0020DB490860DC
:1028D0000720DB490860002010BD00B597B04FF419
:1028E000E06000F061FF00F043F86846FFF752F83F
:1028F00001984FF47A71B0FBF1F0FFF7D6FF012198
:102900005FF40030FFF701FB01215FF48020FFF747
:10291000FCFA01215FF40020FFF7F7FA00F058F805
:1029200000F008F800F064F800F09CF800F031F9CD
:1029300017B000BD00B583B06846FFF7C1FD0820A1
:10294000009001208DF8040000208DF80600022080
:102950008DF8050000208DF8070069465FF0904073
:10296000FFF74EFD08215FF09040FFF7B5FD07BD72
:1029700080B5022000F048FE012000F051FE00204A
:10298000FEF7F6FFFFF700F80028FBD1FEF762FF25
:102990000120FEF79FFFFEF7A5FF1120FFF700FBC8
:1029A0000028FAD05FF4E0115FF48030FEF7BAFF40
:1029B0000120FEF7C9FF1920FFF7F2FA0028FAD02C
:1029C0000220FEF7D5FFFEF7DFFF0828FBD101BD8F
:1029D0009C48006850F080709A49086000209A492D
:1029E00008609A48006850F00100984908607047F4
:1029F00000B587B0964800F0E1FE6846FFF760FD3D
:102A000003208DF804003020009069465FF090406C
:102A1000FFF7F6FC01215FF00050FFF785FA02A8EE
:102A200000F001FF0020039000200590002002909C
:102A300002AA1021864800F0DFFE02AA0021844885
:102A400000F0DAFE01221021814800F0F5FE01229B
:102A500000217F4800F0F0FEB2EE040A00F026F8F4
:102A600007B000BD00B583B001215FF40030FFF76F
:102A70004CFA6846FFF724FD0220009001208DF8F3
:102A8000040000208DF8060002208DF805000020CB
:102A90008DF8070069465FF09040FFF7B1FC022116
:102AA0005FF09040FFF718FD07BD000080B52DEDE9
:102AB000048BB0EE408A9FED530AB4EE408AF1EEEB
:102AC00010FA03DBB3EE020AB0EE408AB1EE0C0A54
:102AD000B4EE408AF1EE10FA03D5B1EE0C0AB0EE76
:102AE000408ADFED498A9FED499A38EEC80ADFED4A
:102AF000480A9FED481A00EE201AB0EE419A9FED69
:102B0000460A29EE000ADFED450AC0EE209ABDEE26
:102B1000E90A10EE100A020092B200214C4800F0BF
:102B2000AAFEBDEC048B01BD10B52DED028B040097
:102B3000A4B200EE104AB8EE400ADFED390A20EEEA
:102B4000200ADFED380A20EE200ADFED370A80EE9A
:102B5000208A9FED310A28EE000ADFED300AC0EE30
:102B6000208A9FED320AF4EE408AF1EE10FA03DB80
:102B70009FED290AF0EE408ABDEEE80A10EE100A39
:102B8000020092B20021324800F067FEBDEC028BD9
:102B900010BD00B583B001210220FFF7C5F94FF445
:102BA0008070009002208DF8040000208DF806004F
:102BB00003208DF8050000208DF8070069465FF0BE
:102BC0009040FFF71DFC002208215FF09040FFF7C6
:102BD0008DFC0620FEF7BDFE07BD1B480068704750
:102BE00038B50400FFF7F9FF1A4909681A4AB1FB22
:102BF000F2F101FB0405280000F04BFE0028FAD199
:102C000031BD000001009041CC045641000000009D
:102C1000D39B5E3E52B89E3F00F07F455C8F524092
:102C20006F12833A00C8C84600007A4401F07F451D
:102C300018ED00E000E400E014E000E018E000E03F
:102C400010E000E0FCED00E0041000E0001000E007
:102C5000007400403800002040420F0010B504000E
:102C60004FF47A7000FB04F0FFF7BAFF10BD0000CC
:102C700001684FF6FE7211400160002101600021E1
:102C80004160002181600021C1606C49884206D109
:102C90006B49096851F00F01694A11606CE069499C
:102CA000884206D16649096851F0F001644A116012
:102CB00062E06549884206D16149096851F4706152
:102CC0005F4A116058E06149884206D15C49096851
:102CD00051F470415A4A11604EE05D49884206D174
:102CE0005749096851F47021554A116044E0594927
:102CF000884206D15249096851F47001504A116066
:102D00003AE05549884206D14D49096851F0706151
:102D10004B4A116030E05149884206D15049096858
:102D200051F00F014E4A116026E04E49884206D10B
:102D30004B49096851F0F001494A11601CE04A49C9
:102D4000884206D14649096851F47061444A1160CD
:102D500012E04649884206D14149096851F4704160
:102D60003F4A116008E04249884205D13C49096860
:102D700051F470213A4A1160704710B40022036880
:102D80001A006FF30E128B680C6A23430C692343FD
:102D90004C6923438C692343CC6923434C6A234306
:102DA0008C6A23431A4302608B8943600B688360FB
:102DB0004B68C36010BC7047002101600021416076
:102DC0000021816000218181002101610021416198
:102DD000002181610021C161002101620021416265
:102DE000002181627047C9B2002904D0026852F004
:102DF0000102026004E002684FF6FE731A400260AE
:102E00007047010000200022CB0003D5194B1B683E
:102E10001A0002E0184B1B681A000A4202D0012374
:102E2000180001E000231800C0B27047C10002D5AD
:102E30000B49086001E00249086070470800024041
:102E4000040002401C0002403000024044000240E6
:102E5000580002406C00024080000240080402401A
:102E6000040402401C0402403004024044040240B6
:102E70005804024000040240000002402DE9F041E5
:102E800000240025002600275FF0000854F080543D
:102E900054F4802454F4805454F0E06454F48014C6
:102EA0002100802000F02FFD00F07CF855F0204537
:102EB00055F080552900822000F025FD56F000567F
:102EC0003100832000F01FFD57F0804757F0006766
:102ED0003900852000F017FD58F4804841468620CF
:102EE00000F011FDBDE8F08180B5502000F0DEFC5F
:102EF0006420FFF7B3FE01BD80B5B421022000F0CD
:102F000050FD4449088081050AD54FF6FF71424AB9
:102F100011804249098851F00201404A118006E0BF
:102F20003E4909884FF6FD7211403C4A118080B23B
:102F3000C00810F0030180B2C008C9B2012906D050
:102F4000364A128852F00402344B1A8006E0334AA3
:102F500012884FF6FB731A40304B1A8010F00302B0
:102F600080B2C00801BD80B500F01CF8702000F0F0
:102F70009DFC012000F09AFC01BD80B5B021042029
:102F800000F00FFD000C2449088000F020F8142008
:102F9000FFF726FEB121042000F003FD000C2049BC
:102FA000088001BD10B5002454F0106454F0805422
:102FB00054F4803454F4801454F4804454F4605431
:102FC00054F440742100812000F09DFC10BD10B528
:102FD000002454F0206454F0104454F4803454F429
:102FE000801454F4804454F4605454F44074210028
:102FF000812000F088FC10BD80B5B521012000F0D3
:10300000D0FC552805D00549098851F00101034A33
:10301000118001BD34170020301700202E1700202A
:10302000321700205FF0FF0C1CEAD05114BF61453D
:1030300006E0C110400721F0E04101F16051704706
:1030400079B900F0004100020AD0B0FA80FC00FA21
:103050000CF001F16051A1EB0C5101EBD0214005C6
:10306000704741020CBF40F4E0016FF00001002006
:103070007047000000B583B001218DED000B68465C
:1030800000F04EFD401E012811D90021684600F0D5
:1030900047FD60B10198DDE90023002847BF00200B
:1030A00005490020054900F079FDCDE900019DEDBD
:1030B000000B03B000BD00000000F0BF0000F03FB7
:1030C000F446400D40EAC120490006D200F00EF857
:1030D000004248BF6FF00040604700F007F84FF033
:1030E000004188428CBF08464042604740F00040A3
:1030F000490DA1F58061491C05D4D1F11F0154BFD0
:10310000C840C01770474FF0000070470000000033
:1031100010EE100AF44600F003F800EE100A6047C3
:10312000C0F3C7527E3A09DD182A0CDA6FF07F41EE
:10313000D14020EA510040188843704700F0004019
:1031400008BF40F07E50704783B582B09DED020B02
:103150008DED000BDDE90023C3F30A5140F2FF724D
:10316000914208D0002904BF190350EA113011D14F
:10317000104905B000BD190350EA113011D1039870
:1031800000284CBF9FED090B9DED020B51EC100B7D
:1031900005B000BD002000900022064B02A800F000
:1031A00071FDDDE9020105B000BD00000000000076
:1031B000000000000000F03F80B551EC100BFFF75D
:1031C000C3FF41EC100B01BD4FEAF17CBCF1E04CB8
:1031D0002CBFBCF5001F11E05FEA4C0C34BFBCF102
:1031E0007F5F2EE05FEA9C0C4FEA0C1C4FEA3C0C20
:1031F000C10071F100414CEB50707047C90241EAC7
:103200005051C00218BF41F0010141F000414FEAA6
:103210006C50C0F10900212810D240EACC7CCCF1DE
:10322000200C11FA0CF070F10040CCF1200C21FAC6
:103230000CF00CF0004C40EB0C0070474FEACC70E7
:103240007047490011F5001F04D84FEACC10FF3039
:10325000C0057047C817704710B504005E48844227
:103260000AD101214FF48040FEF77CFE00214FF48B
:103270008040FEF777FE36E0584884420AD10121AB
:103280005FF40030FEF77DFE00215FF40030FEF7B2
:1032900078FE28E0524884420AD101215FF4802060
:1032A000FEF76FFE00215FF48020FEF76AFE1AE051
:1032B0004C4884420AD101215FF40020FEF761FEF0
:1032C00000215FF40020FEF75CFE0CE046488442DB
:1032D00009D101215FF48010FEF753FE00215FF455
:1032E0008010FEF74EFE10BD2DE9F04198B00400AD
:1032F0000D00002600275FF000082068400840000D
:1033000020606068804638F44058A86850EA080891
:10331000C4F8048020688046344810EA08086868C9
:10332000E96808432969084350EA0808C4F800809E
:10333000A068804638F44078686950EA0808C4F804
:1033400008806846FEF726FB2348844202D10E9887
:10335000070013E02148844202D10F9807000DE0D6
:103360001F48844202D11098070007E01D4884429C
:1033700002D11198070001E01298070020680004AC
:103380000CD578002968B0FBF1F0060078002968B8
:10339000B0FBF1F201FB1200804609E02868B7FBA0
:1033A000F0F006002868B7FBF0F100FB11708046D2
:1033B0002868B8EB500F00D3761C2068000407D5AE
:1033C000C6F3420080464FF6F070304058EA0006DF
:1033D000A68118B0BDE8F0810038014000440040EB
:1033E00000480040004C004000500040F3E9FFFF5F
:1033F0004FF41651016000214160002181600021DD
:10340000C1600C210161002141617047C9B20029EE
:1034100004D0026852F00102026003E00268520820
:10342000520002607047CA05D20D02857047F0B4A1
:10343000002300240025002606000F00BFB23F0A2B
:10344000BFB23B00CFB23C000127A7403D00022B9A
:1034500001D1361D02E0032B00D10836D2B2002A7A
:1034600003D037682F43376002E03768AF433760D7
:10347000F0BC7047826832F48052826082680A43EE
:103480008260704702000020D3690B4202D0012302
:10349000180001E000231800C0B2704701627047B5
:1034A00070B4020000230025002400200E00B6B2F4
:1034B000360AB6B23400CEB23500012616FA05F54A
:1034C000012C02D11668354006E0022C02D1566864
:1034D000354001E0966835400E0C3300012616FA9F
:1034E00003F3D6693340002D04D0002B02D001260F
:1034F000300001E000263000C0B270BC704710B44C
:10350000002200230C0C22000124944023000362BB
:1035100010BC7047816002800023C3800023838039
:1035200000234380704730B402000020EFF3108482
:10353000230072B654881588AC4202D300242000C0
:1035400010E094881588AC4201D3002494809468DC
:10355000958829559488641C94805488641C5480F0
:103560000124200083F31088C0B230BC70472DE9DD
:10357000F84304000D00160020886188471ABFB286
:10358000B6B2B74201D2002017E0EFF310808046B8
:1035900072B65FF000091FFA89F9B6B2B14509D2D7
:1035A0001FFA89F919F805102000FFF7BCFF19F17F
:1035B0000109F0E788F310880120BDE8F28330B4F8
:1035C00002000020EFF31084230072B65488002C10
:1035D00002D10024200011E09468D5882C5D0C7085
:1035E0005488641E5480D488641CD480D488158880
:1035F000AC4201D30024D4800124200083F310883E
:10360000C0B230BC704700000021DFF850211268C2
:103610001100890889000143DFF8402111607047DB
:10362000C0B2002808D0DFF83411096851F0100149
:10363000DFF82821116007E0DFF82011096831F078
:103640001001DFF8182111607047DFF814010068DD
:10365000000609D5DFF80C01DFF80C110860DFF86F
:103660000C01DFF8041108607047DFF8F40000680F
:1036700050F08000DFF8E8100860704738B50400AB
:1036800004255FF4302000F077F80500EDB2042D3A
:103690001FD1DFF8CC00006850F00200DFF8C01046
:1036A0000860DFF8CC000460DFF8B400006850F078
:1036B0004000DFF8AC1008605FF4302000F05CF8E8
:1036C0000500DFF89C00006830F00200DFF8901081
:1036D00008602800C0B232BD70B504000D00042699
:1036E0005FF4302000F048F80600F6B2042E15D141
:1036F000DFF86C00006850F00100DFF8641008602B
:1037000025805FF4302000F037F80600DFF8500025
:10371000006840084000DFF8481008603000C0B280
:1037200070BD144908607047042012490968C90730
:1037300002D5012108000FE00E490968C90602D52B
:103740000221080008E00B490968490702D5032156
:10375000080001E004210800C0B2704700200240C8
:10376000102002402301674504200240AB89EFCDC1
:10377000142002400C20024038B504000425FFF755
:10378000D3FF0500EDB2012D06D1002C04D0FFF7C8
:10379000CBFF0500641EF5E7002C01D105200500D4
:1037A0002800C0B232BD000002490143024A116044
:1037B000704700000000FA050CED00E010B50400B1
:1037C0000C4884420AD101215FF00050FEF7D9FB7A
:1037D00000215FF00050FEF7D4FB09E001215FF00B
:1037E0008060FEF7CEFB00215FF08060FEF7C9FB32
:1037F00010BD00000074004070B400240023056870
:103800002C0040F6FE758D40AC4315685668354374
:1038100096683543D66835432B0013FA01F52C43DF
:10382000046070BC704700210160002141600021EC
:1038300081600221C160704710B4D2B2002A05D065
:10384000036801248C402343036004E003680124DF
:103850008C40A343036010BC704718B4002300934E
:103860000090009B11F10804E318009392B2009BB2
:103870001A6011BC704718B4002300930090009B9D
:1038800011F11404E318009392B2009B1A6011BC6A
:10389000704710B50400FFF7A0F9001B002801D500
:1038A000012000E00020C0B210BD000010B582B0C1
:1038B0000400984800888DF8000000224FF4007141
:1038C0005FF09040FEF70AFE0221934800F0BAFB39
:1038D0000028F9D02100C9B28F4800F0A8FB0121CF
:1038E0008D4800F0AFFB0028F9D080218A4800F015
:1038F000A9FB0128F9D001224FF400715FF090403C
:10390000FEF7ECFD13BDF8B504000E0000224FF4E5
:1039100000715FF09040FEF7E1FD02217E4800F06B
:1039200091FB0028F9D02100C9B27B4800F07FFB51
:103930000027FFB2032F0FDA0221774800F082FB45
:103940000028F9D0300E05002900C9B2724800F0F5
:103950006EFB36027F1CECE702216F4800F072FB21
:103960000028F9D06B4800888DF80000300E050063
:103970002900C9B2684800F05AFB0121664800F0EE
:1039800061FB0028F9D08021634800F05BFB01282F
:10399000F9D001224FF400715FF09040FEF79EFDD8
:1039A000F1BDF8B504000D00002600224FF40071AF
:1039B0005FF09040FEF792FD0221574800F042FB75
:1039C0000028F9D02900C9B2534800F030FB80210B
:1039D000514800F037FB0128F9D001214E4800F092
:1039E00031FB012804D14B4800888DF80000F4E732
:1039F0000027FFB2E4B2A74211D2FF21464800F0EF
:103A000016FB0121444800F01DFB0028F9D03602C6
:103A1000414800F011FB304306007F1CE9E780219C
:103A20003D4800F00FFB0128F9D001224FF400714E
:103A30005FF09040FEF752FD3000F2BD80B500F01F
:103A400001F801BD00B587B04FF46040009002203E
:103A50008DF8040000208DF8060003208DF8050085
:103A600000208DF8070069462C48FEF7C9FC4FF48A
:103A70000070009001208DF8040069465FF09040CE
:103A8000FEF7BEFC01224FF400715FF09040FEF79C
:103A900025FD05220F212148FEF728FD05220E21D4
:103AA0001E48FEF723FD05220D211C48FEF71EFDD2
:103AB00001214FF48040FEF737FA02A800F046FAE1
:103AC0000020ADF808004FF48270ADF80A004FF402
:103AD000E060ADF80C000020ADF80E000120ADF85C
:103AE00010004FF40070ADF812001020ADF8140073
:103AF0000020ADF8160002A9074800F03BFA4FF489
:103B00008051054800F08AFA0121034800F078FA54
:103B100007B000BD0C3800400038004000040048E9
:103B20004268C2F30A5240F2FF739A4207D14168D9
:103B3000090303BF00680028012002207047436882
:103B40005B0004BF0368002B25D040F233439A1A70
:103B5000521A012A1FDB352A06DB416801F00041B9
:103B600041600021016013E0012102F01F03994030
:103B7000491E920607D5426811404A4042600268D9
:103B80001143002202E0026811404A40026011B174
:103B90004FF0FF307047002070470000F0B44FF046
:103BA000004591EA030C44BF6B4000F061BA00BFCE
:103BB000841A71EB030603D2001BB1411219734141
:103BC0004FF4001C1CEB410F34BF7CEB430443E07B
:103BD0000C0DA4EB1356352E50DC45EAC323DB0A4B
:103BE00045EAC121C912B6F120050DDD63FA05F6DB
:103BF000EB4086EA0305124218BF45F00105C018E4
:103C000051F100010CD213E062FA06F5F240554082
:103C1000F3415A40B340F3405A408018594107D30A
:103C200049085FEA30005FEA350528BF45F0010525
:103C300001F58011420875F1004250F1000041EB9E
:103C40000451F0BC4FF4001C1CEB410F38BF70470F
:103C50000020090D090570471CEB410F10D252EAF4
:103C600043060BD0BCEB410F05D80C0DAB43661ED1
:103C7000342EB5DD02E0AB4380185941F0BC7047EB
:103C8000F0BC70472DE9704C04462DED088B94ED87
:103C9000009B43EC182B51EC190B00F09FFA0646E1
:103CA00051EC180B00F09AFA31000E9D06D5002851
:103CB0004DD4022805D184ED008B42E1022EF8D1CB
:103CC00021E050B951EC190B0022344B00F0A6FA58
:103CD0000FD084ED008B002033E1012818D151EC86
:103CE000190B00222E4B00F099FA18BF84ED008BBF
:103CF00051D100F0A3FA212101604FF0FF306FF0A5
:103D00000041C4E90001BDEC088B0220BDE8708CC5
:103D10007EB984ED008B2946204600F095FA040018
:103D200018BF012C40F00C8100F088FA22210160BC
:103D300006E151EC190B0022184B00F06FFA0DD17F
:103D400051EC180B00F00AFBC4E9000123E051EC30
:103D5000190B0022134B00F0D3FB0BD251EC180BC4
:103D6000002300F0FBFAC4E90001BDEC088B002041
:103D7000BDE8708C01220C4B00F0DAFB16D851EC38
:103D8000180B0022054B00F0E9FAC4E9000100F02D
:103D900055FA222101600120D3E000BF0000F07F2E
:103DA0000000F0FF00C89CC000C89C403B4A3C4B50
:103DB00000F0D4FA0022002300F0A2FB34BF9FEDF4
:103DC000390B9FED3A0B53EC102BFFF7E7FEFFF793
:103DD00077F9064600F0C4FB41EC1A0B4FF078422D
:103DE000344B00F0BBFA02460B4651EC190B00F0C5
:103DF00035F982468B4653EC1A2B2F482F4900F099
:103E0000ADFA02460B465046594600F027F96FF0CE
:103E100001022B4B00F08CFB41EC190B05D8002262
:103E2000284B00F06DFBC0F07D8053EC192B00F0A7
:103E300095FA41EC1A0B244A244B00F08FFA244ADD
:103E4000244BFFF7ABFE53EC1A2B00F087FA41EC42
:103E50001B0B51EC1A0B204A204B00F07FFA204A32
:103E6000204BFFF79BFE53EC1A2B00F077FA002251
:103E70001D4BFFF793FE53EC192B00F06FFA41EC4A
:103E8000190B51EC1B0B53EC192BFFF787FE9FED21
:103E900001AB2BE0000000000000F03FFE822B652C
:103EA0004715F73F000000000000E0BF00000000E1
:103EB0000000E03F422EE63FF2E4D5BCE7E84B3E8F
:103EC000FFFF8FBC0000903C112E5781A03F503F58
:103ED0005843128C8F71BC3F4BE8A541B752013F4C
:103EE0000BBDF3DAE8708C3F0000E03F53EC1A2B77
:103EF000FFF754FE82468B4651EC1B0B53EC192BFB
:103F000000F0ACF853EC1A2BFFF748FE02460B46C4
:103F10005046594600F03AFB53EC182B00F01EFABD
:103F200041EC180B84ED008BA919204600F08CF9A8
:103F3000040018BF012C03D100F080F92221016098
:103F40002046BDEC088BBDE8708C0000002101808C
:103F5000002141804FF4E06181800021C180002177
:103F6000018100214181002181810021C18107213E
:103F70000182704770B400224B88B3F5827F1BD159
:103F800003881A0012F441520B884C882343CC88D2
:103F90000D892C434D898E893543CE8935432C4379
:103FA00023431A43028083881A004FF2FF031A400A
:103FB0008B881A4382801AE083881A004FF2FF032D
:103FC0001A408B881A43828003881A0012F44152E7
:103FD0000B884C882343CC880D892C434D898E89CE
:103FE0003543CE8935432C4323431A430280838BC8
:103FF0004FF2FF74234083830B8A038270BC7047A7
:10400000C9B2002904D0028852F04002028004E0C4
:1040100002884FF6BF731A400280704782884EF6BE
:10402000FF731A40828082880A4382807047002290
:1040300002000C32117070470100002008000C30A3
:10404000007870470200002013890B4202D0012340
:10405000180001E000231800C0B27047F0B44FF020
:10406000004591EA030F44BF6B40FFF7A1BD00BFBD
:10407000841A71EB030604D26E40001BB141121981
:1040800073414FF4001C1CEB410F34BF7CEB430623
:1040900084E00C0DA4EB1356362E7DDC012E43DCA0
:1040A00045EAC32343EA525312BFD20292025B088D
:1040B000240545EAC12141EA5051D2EBC020994183
:1040C00025D407D1B0FA80F610FA06F164D00020AA
:1040D000203608E0B1FA81F6B140C6F1200220FA9C
:1040E00002F21143B0404FEAF474B4EB465434F09A
:1040F00001064FEA74040AD8D6F50016760D04F0CE
:104100000044F04061FA06F25040F1404840C00AD5
:1041100040EA415021F0004128BF5FEA500550F1CC
:10412000000044EBD12137E045EAC323DB0A45EA2E
:10413000C121C90AB6F120050EDD42EA0242120C85
:10414000C5F1200603FA06F6EB4042EA06056D4289
:10415000984161F100010DE062FA06F5F240554028
:1041600063FA06FC82EA0C02F3405A406D42904129
:1041700061EB030111F4801F05D1641E620502D0BA
:104180006D004041494121F48011430875F100431D
:1041900050F1000041EB0451F0BC70471CEB410FA3
:1041A00015D223F0004352EA43060BD04FEA4C0CE1
:1041B000BCEB410F04D80C0D661E342EB7DDEBE7C7
:1041C000801A994150EA410608BF0021E4E708BF80
:1041D0001CEB430F28BF6FF00001DDE703B4DDE9FE
:1041E0000023C3F30A5140F2FF72914206D001B19D
:1041F0000CE0190350EA113006D00BE0190350EA25
:10420000113014BF0220012002B070474FF0FF3080
:1042100002B070476FF0010002B0704790420CD1BD
:1042200041EA030C50EA4C0C07D0994205D14FF4F7
:10423000001C1CEB410F38BF89427047014800F059
:10424000D0BA00003C00002070B504460D466068FE
:10425000C0F30A5040F2FF71884207D16068000342
:1042600004BF2068002817D0022070BD20B9204666
:1042700000F0B8FA012866DA012D0FDB40F2FF7179
:10428000091A8D420AD3606800284CBF9FED2F0B9E
:104290009FED300B84ED000B012070BD4142A9421F
:1042A000616806DA6FF31E51401941EA0050606000
:1042B00040E0401E63684519012205F1350062F3B4
:1042C0001F53352801F00041636003D36160002073
:1042D000206070BD002015F11F0F04DA20682360F4
:1042E0000022203562606A4212D0401E256880415B
:1042F000C2F12003C0439D4045EAD070256866683E
:10430000D54006FA03F32B4323606368D340636010
:1043100062680A43B0F1004F626003D80DD1207883
:10432000C0070AD52068401C2060206828B9606852
:10433000401C60604FF0FF3070BD6068884204BF71
:1043400020680028F6D1002070BD00BF00000000EA
:104350000000F0FF000000000000F07FB0B581EA2F
:10436000030C0CF0004C40F2FF7515EA11541DBF10
:1043700015EA1357AC42AF4239E0E41923EA45533A
:1043800043F48013C90241F0004141EA505EC70284
:104390001100A7FB020200284FF00000EEFB0120F5
:1043A0004FF00001E3FB072118BF42F00102401863
:1043B00000214941E3FB0E01A4F580640F0302D202
:1043C00052004041494154F101046CDD470872F14B
:1043D000004250F1000051EB0451A1F580115CBF87
:1043E00041EA0C01B0BD4CEA05510020B0BD05EA20
:1043F0001357AC4214BFAF4241E050EA410E1CBF1C
:1044000052EA430E02E061460020B0BD24423C4423
:104410001BD15FEA070EF6D0090302BF0146002058
:10442000AEF1140EB1FA81F7AEEB070401FA07FE04
:104430000C37C7F1200100FA07F7C8404EEA000E1A
:1044400023EA455343F48013A2E733F00043B3FA61
:1044500083F704BFB2FA82FE77440B3FE41BB7F147
:10446000200E2FBF02FA0EF3BB40C7F1200E22FA36
:104470000EFE38BF43EA0E03BA40641C82E750EADE
:10448000410E14BF52EA430E6FF000014FF40017C3
:1044900017EB430F8ABF194617EB410FB5E74CEAFC
:1044A00005510020B0BDD4F10104B4F120070FDAAA
:1044B000C4F12007520828BF42F0010210FA07F5A4
:1044C00001FA07F7E1BF2A43E0403843E1400FE03B
:1044D000352C98DCC7F1200452EA400220FA07F29A
:1044E00018BF42F0010231FA07F0A1400A4300214F
:1044F00072F1004250F1000051EB0C01B0BD000020
:104500004FF4001C1CEB410F94BF1CEB430F09E060
:1045100041EA030C50EA4C0C52EA0C0C03D29942CB
:1045200008BF9042704714BF8B4282427047000020
:104530004FF4001C1CEB410F94BF1CEB430F09E030
:1045400041EA030C50EA4C0C52EA0C0C03D28B42A9
:1045500008BF8242704714BF9942904270470000E2
:10456000010040F10780F446404200F003F851F0AA
:104570000041604709D0B0FA80F18840C91CC1F5FC
:104580008461090501EBD021400570472DE9F04118
:1045900040F2FF7581EA030C0CF0004C15EA11544F
:1045A0001DBF15EA1357AC42AF42E9E0BC41C1F36D
:1045B0001301C3F31303801A994143F4801304D207
:1045C000641E4000494180185941C90241EA5051D6
:1045D000B1FBF3F603FB1611A2FB0675D7EBC02067
:1045E000A94102D2761E80185941C90241EA5051B0
:1045F000B1FBF3FE03FB1E11A2FB0E75D7EBC0202F
:10460000A94103D2AEF1010E80185941890241EA55
:104610009051760546EA8E2EB1FBF3F603FB161198
:10462000A2FB0675D7EB8020A94102D2761E801826
:104630005941C90241EA50514EEA060EB1FBF3F668
:1046400003FB1611A2FB0675D7EBC020A94102D2CD
:10465000761E80185941C90241EA5051B1FBF3F767
:1046600003FB1711A2FB0735D3EBC020A94167F16B
:1046700000070CBF004247F0010766F3D5274FEA59
:104680001E31B80814F5806414DDBD0775F10042D1
:1046900050EB0E5051EB045111F5801F5CBF41EA05
:1046A0000C01BDE8F0814CF07F6141F0E041002059
:1046B000BDE8F081BD076D0840EA0E5041F480115D
:1046C000D4F10104B4F120060ADAC4F12006020094
:1046D000E04001FA06F3E1401843B24015430EE012
:1046E000342C14DCC6F1200445EA40056D0820FA9C
:1046F00006F2154321FA06F0A1400D43002175F1A1
:10470000004250F1000051EB0C01BDE8F0810020A7
:104710005FEA0C01BDE8F081CFB992185B41B3FAB2
:1047200083F704BFB2FA82F6BF190B3FB7F1200638
:104730002FBF02FA06F3BB40C7F1200622FA06F6A5
:1047400038BF3343BA401CB1E419641E2FE77F42DF
:1047500031F00041B1FA81F404BFB0FA80F6A41937
:104760000B3CB4F120062FBF00FA06F1A140C4F1C2
:10477000200620FA06F638BF3143A0403C1B16E75E
:10478000AC421ABF05EA1357AF4214E050EA4106A3
:104790001CBF52EA4306BFE750EA41073046614674
:1047A0001CBF41EA0551BDE8F08152EA430C08BF45
:1047B000C143BDE8F08100204FF4001616EB410F15
:1047C00098BF16EB430F08BF16EB410F24BFC14340
:1047D00005E016EB430F0CBF61464CEA0551BDE8FE
:1047E000F081704730B4436803F0004201211B039D
:1047F0001B0B436004BF0368002B08D10DE0036866
:10480000DD0F45EA440444605B000360491E4468D0
:10481000E302F4D523031B0B436043681A43426051
:10482000084630BC7047000080B54D48006850F421
:1048300070004B4908604B48006850F0010049493E
:1048400008604948006849490840474908604548A8
:10485000006847490840434908604248006830F40E
:104860008020404908604048006830F4FE003E491E
:10487000086040480068000900013E4908603E4861
:1048800000683E4908403C49086000203C490860F7
:1048900000F005F85FF000603A49086001BD82B0A1
:1048A00000200190002000902E48006850F48030D5
:1048B0002C4908602B48006810F4003000900198E3
:1048C000401C01900098002803D10198B0F5A04F3A
:1048D000F0D124480068800302D50120009001E057
:1048E000002000900098012838D112202649086045
:1048F0001D4800681C4908601B4800681A49086088
:104900001948006850F4806017490860164800682C
:1049100030F47C10144908601348006850F4E81023
:10492000114908600F48006850F080700D49086018
:104930000C4800688001FBD50B48006880088000A7
:10494000094908600848006850F0020006490860FC
:104950000548006810F00C000828F9D102B0704733
:1049600088ED00E000100240041002400CC07FF807
:10497000FFFFF6FE2C10024030100240CCFC00FF7E
:104980000810024008ED00E00020024000009DF504
:10499000BC0000000000000000000000000000005B
:1049A0000000000000000000000000000000000007
:1049B00000000000000000000000000000000000F7
:1049C00000000000000000000000000000000000E7
:1049D00000000000000000000000000000000000D7
:1049E00000000000000000000000000000000000C7
:1049F000CCA04D79D5E345000000D892000000001E
:104A000000000000000000000000000000000000A6
:104A10000000000000000000000000000000000096
:104A200000002AA2000000000000000000000000BA
:104A30000000000000000000000000000000000076
:104A40000000000000000000000000000000000066
:104A50000000000000000000000000000000000056
:104A60000000000000000000000000000000000046
:104A70000000000000000000000000000000000036
:104A800000000000000000000000000080B5FDF7FD
:104A900024FFFCF75DF900F057F8FCF7B7F9FCF7D5
:104AA000D7FDFEF7CBFFFEF71FFAFEF7A5FAFCF7DE
:104AB0006FFCFEF7E3F94FF4FA70FEF7CFF82748E2
:104AC000006827490968884210D324480068401CC0
:104AD0002349086023480078002807D1FEF74DFAE3
:104AE000FEF70AFAFCF710FDFEF73DFA1B480068D6
:104AF0001D49096888420AD3184800680A301A49D3
:104B00000860FCF719FBFCF705FEFBF7DAFF13481A
:104B10000068164909688842D1D31048006864309B
:104B2000124908601248008890F008001049088077
:104B3000104890ED000AFDF7B9FF0F480088FDF717
:104B4000F3FFFCF736FCBAE70C48406809490860F7
:104B50000A48008A0849088070470000241700208E
:104B600018170020381700201C17002020170020DD
:104B7000140000480400002046000020BC1600205D
:104B80007047FEE7FEE7FEE7FEE7704770477047B5
:104B900010480068401C0F490860704710B50E4966
:104BA0000E48FEF77DFC002809D00B490B48FEF7A4
:104BB000A6FC0B4804882000C0B2FCF7D1FD0821F8
:104BC0000648FEF75FFC002803D008210348FEF7E3
:104BD00065FC10BD241700200501050000440040BD
:104BE0002444004019E050F8041BCB0744BFA9F14E
:104BF00001035918121F0023042A41F8043BF9D27B
:104C00005FEA827C0B4604D54FF0000CA1F800C08F
:104C10009B1CD10744BF0021197050F8042B002AB7
:104C2000E1D1704730B5016842688468091801EB2A
:104C30005203D20748BF4C440C30994200D130BDDA
:104C400011F9012B11F8015B002A04F8015B02D570
:104C5000521CF9D1F1E7521EF4D5EEE710B5074921
:104C600079441831064C7C44163404E00A68081D67
:104C7000511888470146A142F8D110BD2C00000010
:104C8000480000004EF68851CEF20001086840F45A
:104C900070000860BFF34F8FBFF36F8F4FF000704D
:104CA000E1EE100A704700003DFFFFFFF40E000028
:104CB00048080020000000006DFFFFFF70010000A9
:104CC000820000000000002000F00BF8002801D056
:104CD000FFF7C4FF0020C046C046FFF7D7FE00F034
:104CE00002F80120704700F001B80000074638467E
:104CF00000F002F8FBE7000080B5C046C046024A5B
:104D000011001820ABBEFBE72600020001488047D7
:104D100001480047294800081D4D0008C046C0460C
:104D2000FFF7B0FFFFF7D0FFFFF7FEBFFFF7FEBFB3
:104D3000FFF7FEBFFFF7FEBFFFF7FEBFFFF7FEBFA7
:104D4000FFF7FEBFFFF7FEBFFFF7FEBFFFF7FEBF97
:104D5000FFF7FEBFFFF7FEBFFFF7FEBFFFF7FEBF87
:104D6000FFF7FEBFFFF7FEBFFFF7FEBFFFF7FEBF77
:104D7000FFF7FEBFFFF7FEBFFFF7FEBFFFF7FEBF67
:104D8000FFF7FEBFFFF7FEBFFFF7FEBFFFF7FEBF57
:104D9000FFF7FEBFFFF7FEBFFFF7FEBFFFF7FEBF47
:104DA000FFF7FEBFFFF7FEBFFFF7FEBFFFF7FEBF37
:104DB000FFF7FEBFFFF7FEBFFFF7FEBFFFF7FEBF27
:104DC000FFF7FEBFFFF7FEBFFFF7FEBFFFF7FEBF17
:104DD000FFF7FEBFFFF7FEBFFFF7FEBFFFF7FEBF07
:104DE000FFF7FEBFFFF7FEBFFFF7FEBFFFF7FEBFF7
:104DF000FFF7FEBFFFF7FEBFFFF7FEBFFFF7FEBFE7
:104E0000FFF7FEBFFFF7FEBFFFF7FEBFFFF7FEBFD6
:104E1000FFF7FEBFFFF7FEBFFFF7FEBFFFF7FEBFC6
:104E2000FFF7FEBFFFF7FEBFFFF7FEBF070000B4AE
:104E30004200002041FC002301020304010203049C
:104E400006070809010002000400060008000A0025
:104E50000C0010002000400080000001F70002A2BA
:0D4E60004A04FC000719001900640032002C
:0400000508004D1D85
:00000001FF
