:020000040800F2
:10000000681F0020514A0008CD480008CF4800086A
:10001000D1480008D3480008D54800080000000077
:10002000000000000000000000000000D7480008A9
:10003000D948000800000000DB480008DD4800083F
:100040006D4A0008714A0008754A0008794A00089C
:100050007D4A0008814A0008854A0008894A00084C
:100060008D4A0008914A0008954A0008994A0008FC
:100070009D4A0008A14A0008A54A0008A94A0008AC
:10008000AD4A0008B14A0008B54A0008B94A00085C
:10009000BD4A0008C14A0008C54A0008C94A00080C
:1000A000CD4A0008D14A0008D54A00084544000856
:1000B000D94A0008DD4A0008E14A0008E54A00087C
:1000C000E94A0008ED4A0008F14A0008F54A00082C
:1000D000F94A0008FD4A0008E7480008014B0008FB
:1000E000054B0008094B00080D4B0008114B000898
:1000F000893F0008154B0008194B00081D4B0008EC
:10010000000000000000000000000000214B00087B
:10011000254B0008294B00082D4B0008314B0008E7
:10012000354B0008394B00083D4B0008414B000897
:10013000454B0008494B000800000000000000008B
:100140004D4B0008514B0008554B000800000000C3
:10015000000000000000000000000000000000009F
:100160000000000000000000594B00085D4B000833
:10017000614B0008000000000000000000000000CB
:1001800000000000654B00080A885040C0B280EAB9
:100190000010C0B2030283EA122282EAC00282EA9D
:1001A0002010088070474FF6FF710180704738B506
:1001B00004460D466846FFF7F6FF04E0694614F86A
:1001C000010BFFF7E1FF2846451E80B20028F5D15C
:1001D000BDF8000032BD70B504460D46164604E079
:1001E000214615F8010BFFF7CFFF3046461E80B2BF
:1001F0000028F5D170BDDFF8B01800EB400201EB2C
:1002000082007047DFF8A41800EB001201EB021027
:100210007047F8B505461E46FE20A870079CEC7096
:100220006971AA713046FFF7E6FF80792871304680
:10023000FFF7E1FF07463046FFF7DDFF8079401CFE
:10024000B8710521E81CFFF7B2FF2880EA7805F1B4
:1002500008012846FFF7BFFF29460898FFF794FFDB
:100260002888E978491908722888000AE978491924
:10027000487204F1080080B2F2BD10B584B0079C4A
:100280000294069C019400930023FFF7C2FF04B080
:1002900010BD38B505460C46E078821DA11C2846E5
:1002A00000F0AEFCE0784019801D218801702188A3
:1002B000090A4170E078083080B232BD73E70A461F
:1002C0000146104660E70000F8B506460C461746A2
:1002D0001D4600202070E07801460A2900F27C804B
:1002E000DFE801F0060611231B2B33415164640043
:1002F000FE2F71D10220E0700020F070B770304600
:10030000FFF7DCFF68E0F7700020207139463046C7
:10031000FFF7D5FF0420E0705EE0377139463046C4
:10032000FFF7CDFF0320E07056E077713946304685
:10033000FFF7C5FF0520E0704EE0B7713946304643
:10034000FFF7BDFF0620E07046E0F7713946304602
:10035000FFF7B5FFF078002802D10820E0703BE0FD
:100360000720E07038E02079411C21718019077264
:1003700039463046FFF7A3FF2079F17888422BD128
:100380000820E07028E00FF27870F179095C3046BF
:10039000FFF795FF3078874202D00A20E07001E035
:1003A0000920E07020798019077215E00A2803D02F
:1003B0003088B7EB102F02D00220207001E001201E
:1003C00020700120E0702079801947724FF4887204
:1003D0003146284600F024FC2078012809D13079E4
:1003E00060712089002801D1002060812089401C93
:1003F0002081F078E8700698E178C1702179017168
:100400006179491C417121890181A17841810020D4
:10041000A0702078022806D120798019017A407ACC
:1004200041EA002028802078F2BD2DE9F04182B019
:1004300004460D4616461F46FFF7DDFE8046204661
:10044000FFF7E0FE009733462A464146FFF73CFFA0
:10045000BDE8F68170B505460E46FFF7E6FF0228B7
:1004600017D12846FFF7CEFE04462846FFF7C3FE05
:100470008178491C8170002101700121C170FE2E1C
:1004800006D10221C1700020E0702046FFF716FF60
:10049000002070BD1346002903D10022194600F048
:1004A000EBBB00F0ADBB70B504460D46E678002E00
:1004B00000D0012600220121284600F0DDFB324653
:1004C00004F108012846BDE8704000F099BB70B502
:1004D00004460D46E678052E00DB052600220521A0
:1004E000284600F0FDFB324604F108012846BDE82D
:1004F000704000F085BB70B5B6B004460D46164698
:100500003A98ADF808003B98ADF80A003C98ADF871
:100510000C008DF80E303D988DF80F00C8223E99E2
:1005200004A8FFF7B7FFD02202A906F1080000F0E7
:1005300067FB0420F071BC200190D020009003469E
:100540002A4621463046FFF798FE36B070BD10B5FA
:1005500086B003F108040494DC7903949C88029427
:100560005C8801941C8800949B79FFF7C4FF06B057
:1005700010BD70B504460D46E678062E00DB062653
:1005800000220621284600F0ABFB324604F10801A8
:100590002846BDE8704000F033BB70B504460D46F8
:1005A000E678042E00DB042600220421284600F011
:1005B00097FB324604F108012846BDE8704000F080
:1005C0001FBB70B504460D46E678022E00DB0226FE
:1005D00000220221284600F04FFB324604F10801B8
:1005E0002846BDE8704000F00BBB70B504460D46D0
:1005F000E678022E00DB022600220221284600F0C7
:100600003BFB324604F108012846BDE8704000F08B
:10061000F7BA70B504460D46E678082E00DB0826CA
:1006200000220821284600F05BFB324604F1080155
:100630002846BDE8704000F0E3BA70B504460D46A8
:10064000E678022E00DB022600220221284600F076
:1006500013FB324604F108012846BDE8704000F063
:10066000CFBA70B504460D46E678022E00DB0226AE
:1006700000220221284600F0FFFA324604F1080168
:100680002846BDE8704000F0BBBA70B504460D4680
:10069000E678042E00DB042600220421284600F020
:1006A0001FFB324604F108012846BDE8704000F007
:1006B000A7BA70B58AB004460D4616468DED020AFB
:1006C000CDED030A8DED041AADF814300F98ADF896
:1006D00016001098ADF818001198ADF81A0012988D
:1006E000ADF81C001398ADF81E000E988DF8200090
:1006F000192202A906F1080000F082FA9620F07192
:100700002A2001901920009003462A4621463046AF
:10071000FFF7B3FD0AB070BD10B586B0DC8A059452
:100720009C8A04945C8A03941C8A0294DC89019458
:100730001C7E009493ED021AD3ED010A93ED000A9A
:10074000B3F90C30FFF7B5FF06B010BD70B586B039
:1007500004460D4616468DED020ACDED030AADF8AE
:1007600010300A98ADF812000B98ADF814000E2264
:1007700002A906F1080000F043FA9720F071A220C8
:1007800001900E20009003462A4621463046FFF78E
:1007900074FD06B070BD1CB59C8901945C89009401
:1007A000D3ED010A93ED000A1B89FFF7CFFF16BDB9
:1007B000BFF34F8FBE48016801F4E061BD4A1143A9
:1007C0000160BFF34F8F00BFFDE7000010B586B09A
:1007D000B94C03AB224601460020FFF73BFE002840
:1007E00000F08580E07902280ED169462046FFF7A7
:1007F0005AFE9DF80000012802D100F07AF803E0CB
:10080000022801D100F0A7F8E07903280FD101A94F
:100810002046FFF75CFE9DF80800012802D100F099
:10082000B2FA64E0022862D1FFF7C2FF5FE06528F8
:1008300010D169462046FFF7B0FE9DED000ADFEDBE
:10084000990AB4EE600AF1EE10FA50DA9B4800996A
:1008500001604CE0642808D101A92046FFF789FE19
:10086000DDE9010100F0E8FC41E0662808D16946B5
:100870002046FFF7A6FEBDF800009149088036E04B
:10088000692809D101A92046FFF7C3FE01A890EC11
:10089000020A00F08EFE2AE0672808D16946204649
:1008A000FFF7A3FEBDF8000000F038FD1FE06A2846
:1008B00008D169462046FFF7C0FEBDF8000000F0F1
:1008C0004EFD14E06E2808D169462046FFF7C9FEA8
:1008D000BDF8000000F0D9FF09E06F2807D1694694
:1008E0002046FFF7D2FE9DED000A00F0D7FF06B0CC
:1008F00010BD00B5CDB07348006801907248006823
:1009000000906E48006802906D480088ADF80E00B7
:100910006E480068ADF80C006D480088ADF8100016
:100920006C480088ADF812006B4800788DF818000C
:100930006A480088ADF8140069480088ADF81600D0
:100940006B4608AA01210846FFF7E6FE08A800F05A
:1009500021F84DB000BD00B5C9B0624800680090F4
:1009600061480088ADF8080060480088ADF80A00CA
:100970005F48006801905A480088ADF80C006B464B
:1009800004AA01210846FFF706FF04A800F002F8B8
:1009900049B000BD00B5C3B0002801D100200CE073
:1009A00001466846FFF775FCB0F5847F01DB002047
:1009B00003E00146684601F082F843B000BD38B557
:1009C0004C4C2078002821D0E088218981421BD21C
:1009D000C825401E81420AD120692A46B0FBF2F2A6
:1009E0002B4603FB1205EDB2002D00D11D462A4611
:1009F000E06800F00CF8002808D0E0682818E060F3
:100A00002089401C208131BD0020207031BD00B5FF
:100A1000F9B038490B798DF81631CB88ADF814311F
:100A20004B89ADF810318DF817210989ADF81211F5
:100A3000C822014646A800F0E3F844AB6A4601210B
:100A40000846FFF784FD6846FFF7A4FF79B000BDB4
:100A50002848012101712849C1604189491C41810F
:100A60002649098889000161C731C822B1FBF2F12A
:100A7000C180002101810121017070471D4A0223BC
:100A80001371D0605089401C508148001061C730FC
:100A9000C821B0FBF1F0D08000201081012010703F
:100AA0007047000001009841CC3900201831002027
:100AB0000CED00E00400FA0578380020D81600207C
:100AC000C816002004000020080000203804004060
:100AD000643A0020663A0020000000206A3A0020B4
:100AE0006E3A0020E416002066170020E016002071
:100AF000F01600203C3A002058350020B6160020A1
:100B000000009DF5BC000000000000000000000097
:100B100000000000000000000000000000000000D5
:100B200000000000000000000000000000000000C5
:100B300000000000000000000000000000000000B5
:100B400000000000000000000000000000000000A5
:100B50000000000000000000000000000000000095
:100B600000000000CCA04D79D5E345000000D892EC
:100B70000000000000000000000000000000000075
:100B80000000000000000000000000000000000065
:100B90000000000000002AA2000000000000000089
:100BA0000000000000000000000000000000000045
:100BB0000000000000000000000000000000000035
:100BC0000000000000000000000000000000000025
:100BD0000000000000000000000000000000000015
:100BE0000000000000000000000000000000000005
:100BF00000000000000000000000000000000000F5
:100C000062B38B0708D0521E11F8013B00F8013B7C
:100C100000F024808B07F6D1830740F0208000BFCE
:100C2000103A07D330B4B1E83810103AA0E83810C1
:100C3000F9D230BC530724BFB1E80810A0E808106F
:100C400044BF51F8043B40F8043BD20724BF31F8BD
:100C5000022B20F8022B44BF0B7803707047083A30
:100C600007D3B1E80810083A40F8043B40F804CB39
:100C7000F7D25307E4E7000062F30F2262F31F424A
:100C8000401810F0030308D0C91A1FD3DB0748BF70
:100C900000F8012D28BF20F8022D130030B41446AF
:100CA0001546103928BF20E93C00FAD8490728BF6B
:100CB00020E90C0048BF40F8042D890028BF20F827
:100CC000022D48BF00F8012D30BC7047C91818BF6D
:100CD00000F8012DCB0728BF00F8012D7047000058
:100CE00062F30F2262F31F4200B500BF1300964665
:100CF0009446103928BFA0E80C50FAD85FEA417C2E
:100D000028BF0CC048BF40F8042BC90728BF20F8F3
:100D1000022B48BF00F8012B00BD00002E482F49D0
:100D2000816019218181002181732D494160322127
:100D30000182002141618161C16180F828104FF476
:100D4000AA710184274941624AF6CD31018070477A
:100D500010B5214C2C222146234800F004FF2088A6
:100D60004AF6CD31884202D0BDE81040D6E710BD2A
:100D700080B53E2000F0C0FE2C2217491A48BDE87D
:100D8000084000F0CEBE1448011D184A12684A609F
:100D9000174A12880A81174A12788A72164A12680C
:100DA0000A60164A12888A81154A12680A61154A31
:100DB00012684A61144A12880A83144A12884A83C4
:100DC000134A127880F82820124800888883124835
:100DD00000680862CCE70000FC3900200000B44243
:100DE000000020410000704100F0010808000020D0
:100DF0000200002000000020D8160020C8160020A5
:100E0000BC160020C0160020BA160020B81600201C
:100E1000DC160020E0160020F016002080B500F05F
:100E200018F800F07EF800F09FF800F019F9DFF8EC
:100E30005004DFF850148A6882608A894280897B76
:100E40000170002904D1104600B2BDE80240EAE179
:100E500001BD10B588B00121022001F091F80121F7
:100E60004FF4003001F076F8684601F0E0F9DFF861
:100E70001844204601F0E8F80020ADF80000DFF843
:100E80000C040068DFF80814B0FBF1F0401E01907C
:100E90000020ADF80800ADF802006946204601F0D8
:100EA0007AF90121204601F0CFF903A801F074FA84
:100EB000602003900120ADF8100001981E21B0FBC6
:100EC000F1F005900020ADF8180003A9204601F0CC
:100ED000D3F90821204601F069FA03A801F05CFA71
:100EE000602003900120ADF8100001980A380590A9
:100EF0000020ADF8180003A9204601F025FA0121D1
:100F0000204601F0BCFA8021204601F0FDFA702154
:100F1000204601F0DAFA0121204601F0A1F908B0DB
:100F200010BD00B583B0684601F099FB80200090A9
:100F300002208DF8040000208DF8060002208DF8B4
:100F4000050000208DF8070069464FF0904001F041
:100F50004BFB022207214FF0904001F093FB01214F
:100F6000C94801F08CFA07BD10B590B04FF48870F5
:100F700000F0E1FF01214FF0805000F0EBFF6846E8
:100F800001F06DFB03208DF8040000208DF80700B0
:100F9000042000906946BF4801F026FBBE4C204665
:100FA00001F084FB0121204601F022FC4FF47A700D
:100FB00001F01DFE0021204601F00FFC204601F04B
:100FC00007FC204601F011FC0028FAD102A801F02C
:100FD000EDFB002002904FF4803003904FF400406E
:100FE0000490002005908DF8180002A9204601F019
:100FF000ACFB07A801F09EFB0020089007904FF47F
:10100000707009904FF480600A9000200B904FF4AC
:1010100080500C9000200D9001208DF8380007A919
:10102000204601F06CFB002301220C21204601F038
:10103000EEFB0021204601F057FC0121204601F083
:1010400048FC0121204601F0B8FB0121204601F0B7
:1010500053FC0028F9D0204601F031FC10B010BD3F
:1010600010B58CB00121022000F074FF8B4C20469B
:1010700001F0F8FD684601F086FE89480090894835
:101080000190002002902120ADF80C000020049077
:10109000802005904FF4807006904FF48060079098
:1010A000002008904FF40050099000200A906946F3
:1010B000204601F04DFE0121204601F071FE0CB0EA
:1010C00010BD38B5744C0021204601F076FB734DFD
:1010D0000021284601F064FE212068607148E86024
:1010E000714801F069FE204601F0EEFB1021204618
:1010F00001F009FC0121284601F052FE01212046A1
:1011000001F05BFB2046BDE8324001F0D8BB10B5D2
:1011100000F068F85A4C00F075F884ED010AFFF70A
:10112000D0FF2078002802D0BDE8104000E010BDBC
:101130005348417800290CD190ED010AD0ED020A04
:10114000B4EE600AF1EE10FA00D537E001214170EB
:101150007047012916D155490A6803699A422CD370
:101160000968C831016190ED010AD0ED020AF4EE80
:10117000400AF1EE10FA00D52AE080ED030A0221C0
:1011800041707047022918D190ED010AD0ED030A91
:10119000B8EE001A70EE810AB4EE600AF1EE10FAB1
:1011A00002D5002141707047D0ED020AF4EE400AEA
:1011B000F1EE10FA01D50121417070473C480188D9
:1011C0005B2904DA491C0180084600B22BE0704715
:1011D000374801880A2904DB491E0180084600B20D
:1011E00021E07047002001212E4B04E033F812204B
:1011F00010FA82F0491CC9B20A46212AF6DB4009DE
:1012000080B2704700EE100AB8EE400ADFED190A0E
:1012100020EE200ADFED180A80EE200ADFED170A23
:1012200020EE200A70470146224A1368994202D2F2
:10123000D1601F490880704713B5BDF90440002CE8
:1012400007D42046FFF7EFFF0D48002101704480CE
:1012500013BD9DED000AB5EE400AF1EE10FA07DD70
:10126000074800998160C16002214170012101702D
:1012700013BD00005C8F524000F07F450000CE425D
:1012800000000020FC390020000400405C17002012
:10129000A08601000004004800010050080402403C
:1012A000400100508839002002000010703A0020F0
:1012B000641700202C04004010B5CB4CCB4841698A
:1012C000216181696161818BE181C08BA0810022F4
:1012D00008212046FFF704FD00220821C448FFF73B
:1012E000FFFC94ED040AB5EE400AF1EE10FA04D1C9
:1012F000C048018841F04001018010BD10B5BA4CD2
:10130000207A002805D000F00DF8FFF7A1FB00209F
:10131000207200F02CF8BDE81040C7E00120B2496F
:101320000872704710B5002412E001F09AFD012008
:1013300001F094FC01F0A0FDAF48B049098820F805
:101340002410AF49098800EB84004180641CA4B2DA
:10135000A54840898442E8DBBDE810405FE0A2492F
:101360004A7A002A02D101224A728881704710B558
:101370009D4C607A012805D16089FFF7CFFF0220DC
:10138000607210BD02281BD1207A002818D10320DA
:10139000607200F016F89A49098800F0C3F810EE60
:1013A000100A01F0A5FD41EC100B01F0C9FD51EC54
:1013B000100B01F0EBFD80B200F016F80020607217
:1013C00010BD0020012105E08B4A32F8212010FADF
:1013D00082F0491C844A528989B29142F4D3511E49
:1013E000B0FBF1F080B2704738B504467E4DA88955
:1013F00000EE100AB8EE400ADFED760A80EE200A11
:1014000001F0EAFDBDEEC00A10EE100A80B2A04263
:1014100002DA201AE88131BD0020E88131BD784828
:1014200001887648008810B5002805D0002903D02F
:101430004FF6FF72904201D1002010BD714C6288BE
:10144000914201D2032010BD00F06CF800F042F888
:10145000208010BD01B4644890ED060AF7EE000A42
:1014600070EEC00A6249BDF8002001EE102AB8EE05
:10147000411A21EE001AD1ED001A00EEA11A80EDFA
:10148000001ABDF8022001EE102AB8EE411A21EE32
:10149000000A91ED011A00EE810A80ED010A90EC3C
:1014A000020A81EC020A01B07047000010B54E4CF0
:1014B000D4ED010A94ED000A00F05EF8DFED460A73
:1014C00030EE200A01F088FDBDEEC00A10EE100AD1
:1014D000E08110BD80B54448C08900EE900AF8EE66
:1014E000600A30EE600ADFED3B0A20EE200ADFEDF5
:1014F0003B0AB4EE600AF1EE10FA01D5012002BDFC
:10150000DFED370AB4EE600AF1EE10FA01DB0220DB
:1015100002BD01F061FDBDEEC00A10EE100A80B2FE
:1015200002BD000080B52DED028B2F4A92ED040A1A
:10153000B5EE400AF1EE10FA02D19FED2A0A18E04A
:1015400000EE900AB8EE608A4FF6FF73984202D11F
:10155000B0EE480A0DE000EE901AF8EE600A30EEA8
:10156000600AD2ED050A80EE200A01F051FD38EE46
:10157000400ABDEC028B01BD80B52DED028BB0EEB3
:10158000408A194890ED040AB5EE400AF1EE10FACF
:1015900002D19FED140A09E030EE600AD0ED050A91
:1015A00080EE200A01F034FD38EE400ABDEC028BDB
:1015B00001BDB5EE400AF1EE10FA0AD00A4880EDFE
:1015C000040AC0ED050A0B4801884FF6BF721140AE
:1015D000018070479A996D41FD4A01C00AD723BC2A
:1015E0000160EA4600000000AC160020FC39002033
:1015F0005C3A00206E3A002058350020643A002002
:10160000663A00206A3A002080B500F0C9F8AD487B
:10161000AD49027A0A7090ED010AF3EE0E0AB4EEBB
:10162000600AF1EE10FA01D581ED050A0088888084
:10163000BDE8024020E10000A44890ED000AB8EEA9
:10164000400ADFED9D0A80EE800A9F4880ED020A85
:10165000DFED9A0AB4EE600AF1EE10FA06DAF1EE66
:10166000040AB4EE600AF1EE10FA05D598490A882A
:1016700042F020020A8005E095490A884FF6DF73A0
:101680001A400A800078002800D000E07047914896
:101690000068B0F57A7F00D2704710B58A4C607848
:1016A000002806D100F03AF8002835D001206070FB
:1016B00010BD012830D1864800781821084205D095
:1016C000A08800F0D9F80020607010BD94ED050AE4
:1016D000D4ED020A70EE600A94ED031A94ED040A48
:1016E00000EE810A84ED040AB5EE400AF1EE10FA2C
:1016F00001D500202061A08800EE100AB8EE400A53
:10170000D4ED040A30EE200ABDEEC00A10EE100A35
:1017100080B2BDE81040AFE010BD000038B52DED3F
:10172000028B9FED670A684CA078401CA070C0B285
:101730000A2801DB0020A070A07804EB8000A168DB
:101740008161002006E004EB8101D1ED060A30EE54
:10175000200A401CC0B201460A29F4DBF2EE040A5A
:1017600080EE208A002500E06D1CEDB228460A2894
:1017700012DA04EB800090ED060A38EE400A10EE13
:10178000100A01F0B5FB21F000410122524B01F09B
:1017900067FCE9D8002000E00120BDEC028B32BDDF
:1017A00010B58AB00121084600F0EAFB01214FF490
:1017B000802000F0CFFB684600F051FF4FF48060BE
:1017C000009002208DF8040000208DF80600022011
:1017D0008DF8050000208DF80700404C6946204632
:1017E00000F002FF01220A21204600F04BFF02A870
:1017F00000F01DFD4FF0804000F026FC0020ADF809
:1018000008003748006844F62061B0FBF1F0401E44
:1018100003900020ADF81000ADF80A0002A94FF0C7
:10182000804000F0B8FC01214FF0804000F00CFD3A
:1018300005A800F0B1FD602005900120ADF818006A
:101840002148808807900020ADF8200005A94FF0BE
:10185000804000F046FD08214FF0804000F0ADFDD3
:1018600001214FF0804000F00AFE01214FF080403E
:1018700000F0F6FC0AB010BD01461A4A13689942FE
:1018800002D2116118490880704710B50E4CA08033
:10189000FFF7F2FF0020207010BD0000DFED070A07
:1018A000B4EE600AF1EE10FA04DA074880ED050A9A
:1018B0000121017070470000002474490100F041CB
:1018C000000000001C3A0020DC160020303A002006
:1018D0006E3A0020703A00200000F03F00040048FB
:1018E0005C1700202C0000406617002010B58AB05D
:1018F00000F0A0F801214FF4003000F02BFB012193
:101900004FF4003000F03CFB00208DF80A0001206D
:101910008DF80B0002208DF80800082001900220AD
:101920008DF809006A4C01A9204600F05DFE1020E8
:10193000019001A9204600F057FE0722032120460E
:1019400000F0A0FE07220421204600F09BFE614C1F
:10195000204601F09DFB03A801F048FC5E4803907F
:10196000002004900590069008900C20079003A991
:10197000204601F0DAFB4FF48051204601F070FC64
:1019800001225649204601F052FC26208DF8000025
:1019900005208DF8010000208DF8020001208DF84F
:1019A0000300684601F099FC01228021204601F0E5
:1019B00034FC00F006F80121204601F023FC0AB0B7
:1019C00010BD10B58CB00121084600F0C3FA444C9C
:1019D000204601F047F9684601F0D5F941480090EA
:1019E00000200190102002900020ADF80C0004901F
:1019F00080200590002006900790089009900A909A
:101A00006946204601F0A4F90CB010BD70B504463B
:101A10000D46334E706800280BD10021304601F08E
:101A2000BFF97560F46001213046BDE8704001F0F7
:101A3000B7B970BD10B52C4C4FF4007204F5167197
:101A400004F5CB6001F082FC4FF4007204F58B6169
:101A500004F26460BDE8104001F078BC80B503E09A
:101A60009DF80000FEF7B2FE6946204801F0B7FC81
:101A70000028F5D100F001F801BD1D4800680028DC
:101A800000D0704770B582B0174C04F264652846E8
:101A900001F0A3FC052811DB002604E09DF80000FE
:101AA000B6B23055761C6946284601F098FC0028ED
:101AB000F4D1314689B22046FFF7A8FF73BD0A462C
:101AC00001460C4801F066BC0146084801F045BCDF
:101AD000000400480044004020A107000501050063
:101AE0008000024028440040681F0020C0250020DC
:101AF00084000240CC25002038B5044601F0A3FC48
:101B0000EFF3108572B6342001F0E5FCE00200F13D
:101B1000006001F0ABFC85F31088BDE8314001F0B6
:101B20009EBC2DE9F04104460D46164601F08BFCA3
:101B3000342001F0D0FC0027EFF3108800E07F1C78
:101B4000BFB2B7EB560F0AD272B635F8171020465F
:101B500001F0A8FCA41C88F310880428EFD0BDE88D
:101B6000F04101F07CBC0B4601461846FFF748B82F
:101B7000DFF89004016841F0010101604168DFF87D
:101B80008824114041600168DFF880241140016021
:101B9000016821F480210160416821F4FE01416067
:101BA000C16A890B8903C162016BDFF864241140AB
:101BB0000163002181607047DFF8581400220A7029
:101BC0000870704710B582B00020009004461120C4
:101BD00000F002FA0099491C00910099B1F5A04F5C
:101BE00001D00028F3D0112000F0F6F9002800D031
:101BF0000124204616BDDFF82024136823F4741353
:101C0000136013680843184310607047DFF80C1422
:101C100008607047DFF800140A686FF007431A4045
:101C200042EA006008607047DFF8EC130A68920827
:101C300050EA820008607047DFF8DC03006800F0BB
:101C40000C007047F0B40023DFF8CC130A6802F0F0
:101C50000C04DFF8D023082C17D10B6803F47013A1
:101C60000C6804F480349B0C9B1C002C03D1DFF81F
:101C7000B843634307E08C6A04F00F04641C154604
:101C8000B5FBF4F46343036000E002600C6804F009
:101C9000F005DFF898432D092D5D0668EE4046609B
:101CA0000F6807F4E0673F0A3F5DFE4086600E68FC
:101CB00006F46056F60A365D4768F740C7608F6ADB
:101CC00007F4F8773F0907F00F0C04EB4C0CBCF855
:101CD00010C0FF0606D5BCF1000F03D0B3FBFCF724
:101CE000076101E0076807618F6A07F478577F0A88
:101CF00007F00F0C04EB4C04248AFF0605D5002CDA
:101D000003D0B3FBF4F4446101E004684461CC6A9D
:101D1000E40601D4826101E004688461CC6AA4060F
:101D200001D4C26101E00468C461CC6A640601D4D4
:101D3000026201E004680462CC6AE40507D5046825
:101D40009C4204D1AE4202D15C00446201E0C4680E
:101D50004462CC6AE40407D504689C4204D1AE42D4
:101D600002D15C00846201E0C4688462CC6AA4058C
:101D700007D504689C4204D1AE4202D15C00C46223
:101D800001E0C468C462CC6A640507D504689C425B
:101D900004D1AE4202D15C00C46401E0C468C464F2
:101DA000CC6A240507D504689C4204D1AE4202D116
:101DB0005C00046501E0C4680465CC6AA40407D52E
:101DC00004689C4204D1AE4202D15C00446501E04B
:101DD000C4680465CC6A240407D504689C4204D115
:101DE000AE4202D15B00836501E0C3688365CB6AC4
:101DF00013F0030F02D1C368836316E0CB6A03F0CC
:101E00000303012B02D1036883630EE0CB6A03F066
:101E10000303022B03D14FF40043836305E0CB6A35
:101E200003F00303032B00D18263CB6A13F4403F1A
:101E300002D18368C36319E0CB6A03F44033B3F57E
:101E4000803F02D10368C36310E0CB6A03F44033E0
:101E5000B3F5003F03D14FF40043C36306E0CB6A00
:101E600003F44033B3F5403F00D1C263CB6A13F4AF
:101E7000402F02D18368036419E0CB6A03F4402346
:101E8000B3F5802F02D10368036410E0CB6A03F43A
:101E90004023B3F5002F03D14FF40043036406E061
:101EA000CB6A03F44023B3F5402F00D10264CB6A20
:101EB00013F4401F02D18368436419E0CB6A03F432
:101EC0004013B3F5801F02D10368436410E0CB6A6E
:101ED00003F44013B3F5001F03D14FF400434364F0
:101EE00006E0CB6A03F44013B3F5401F00D142640F
:101EF000CB6A13F4400F02D18168816419E0CB6A88
:101F000003F44003B3F5800F02D10168816410E04F
:101F1000CB6A03F44003B3F5000F03D14FF4004143
:101F2000816406E0C96A01F44001B1F5400F00D1B7
:101F30008264F0BC70473A49020F0A6803D022F469
:101F400078520A6002E022F4F8720A600A681043CC
:101F500008607047364A0029116802D008431060B3
:101F6000704721EA000010607047324A002911686A
:101F700002D008431060704721EA000010607047EB
:101F80002D4A0029116802D008431060704721EAE9
:101F9000000010607047294A0029116802D00843E8
:101FA0001060704721EA000010607047244A002941
:101FB000116802D008431060704721EA00001060E9
:101FC0007047204A0029116802D00843106070470A
:101FD00021EA00001060704701464909094A01D111
:101FE000116808E0012901D1116A04E0042901D136
:101FF000516800E0516A00F01F00C14001F001008B
:10200000704700000010024000C0FFF8FFFFF6FE1E
:10201000CCEC000F0210024004100240600042426B
:102020002C10024000127A0000093D001C1700200D
:1020300014100240181002401C10024028100240E8
:102040000C1002401010024080B5DFF89014884256
:102050000BD101214FF40060FFF7A8FF00214FF4DE
:102060000060BDE80440FFF7A1BFB0F1804F09D187
:1020700001210846FFF7A5FF00210120BDE804402B
:10208000FFF79FBFDFF85814884209D101210220D1
:10209000FFF797FF00210220BDE80440FFF791BF42
:1020A000DFF84014884209D101210420FFF789FF9D
:1020B00000210420BDE80440FFF783BFDFF82814A7
:1020C000884209D101211020FFF77BFF0021102059
:1020D000BDE80440FFF775BFDFF81014884209D14E
:1020E00001212020FFF76DFF00212020BDE80440E2
:1020F000FFF767BFDFF8F81388420BD101214FF4D7
:102100000050FFF753FF00214FF40050BDE804409A
:10211000FFF74CBFDFF8DC1388420BD101214FF4ED
:102120008030FFF743FF00214FF48030BDE80440CA
:10213000FFF73CBFDFF8C01388420BD101214FF4F9
:102140000030FFF733FF00214FF40030BDE80440BA
:10215000FFF72CBFDFF8A41388420BD101214FF405
:102160008020FFF723FF00214FF48020BDE80440CA
:10217000FFF71CBFDFF8881388420BD101214FF411
:102180008010FFF713FF00214FF48010BDE80440DA
:10219000FFF70CBF01BD10B40388DFF84023904265
:1021A00012D0DFF84C43A0420ED0B0F1804F0BD0DC
:1021B000DFF82C43A04207D0DFF82843A04203D029
:1021C000DFF83C43A04204D14FF68F7423404C8883
:1021D0002343DFF81443A04208D0DFF81043A042A5
:1021E00004D04FF6FF4423400C89234303804B68FF
:1021F000C3620B880385904213D0DFF8F42290422B
:102200000FD0DFF8F02290420BD0DFF8EC229042A2
:1022100007D0DFF8E822904203D0DFF8E4229042B2
:1022200001D1498901860121416110BC70474FF0FD
:10223000FF3141600021018001814180418170476F
:1022400041627047C16270470029018803D041F0A4
:102250008001018070474FF67F7211400180704706
:102260000029018803D041F00101018070474FF639
:10227000FE7211400180704770B4026A22F01002B1
:102280000262046A42688369DFF878522B400D6865
:1022900043EA052324F020048D898E88354344EADF
:1022A0000514DFF83852A84203D0DFF84452A842A0
:1022B00010D124F08004CD8944EA051424F04004B0
:1022C000CD8844EA051422F440620D8A4E8A3543D3
:1022D00042EA85024260836189688163046270BC5E
:1022E000704770B4026A22F480720262046A426823
:1022F000C36923F073030D682B4324F400748D89A4
:102300008E88354344EA0524DFF8D051A84203D033
:10231000DFF8DC51A84210D124F40064CD8944EAEE
:10232000052424F48064CD8844EA052422F4405234
:102330000D8A4E8A354342EA05124260C3618968BC
:10234000C163046270BC704770B4026A22F48052A8
:102350000262036A4268C46924F4E6440D6844EAF0
:10236000052423F400538D898E88354343EA0533D1
:10237000DFF86851A84203D0DFF87451A84204D1B5
:1023800022F480420D8A42EA85124260C461896863
:102390000164036270BC7047002101608180C180CC
:1023A00081608181C181018241827047826922F40A
:1023B000006242EA012181617047C26922F008028D
:1023C0001143C161704738B504460D466988AA8833
:1023D0002B892888002807D1204600F09EF8E9883C
:1023E0002046BDE8344025E0042807D1204600F00F
:1023F000A9F8E9882046BDE8344023E008282046B3
:1024000006D100F0B9F8E9882046BDE8344022E062
:1024100000F0CDF8E9882046BDE8344024E00021F2
:1024200001804180012181800021C18001817047AC
:10243000806B7047826922F00C02826182691143CD
:1024400081617047826922F440628261826942EA56
:10245000012181617047C2694FF6F3731A40C2616E
:10246000C2691143C1617047C2694FF2FF331A401C
:10247000C261C269090289B21143C1617047002972
:10248000416C03D041F40041416470474904490C58
:1024900041647047002AC26802D01143C16070478E
:1024A000C94389B21140C1607047002203690B40E3
:1024B000C0680840002B02D0002800D0012210463E
:1024C0007047C94389B20161704742684FF68F7304
:1024D0001A4042604268114341607047002C01403D
:1024E00000040040000800400010004000140040BC
:1024F00000340140004001400044014000480140D8
:1025000000500140FF8CFFFE82684FF67F731A4037
:102510008260826811438160704730B4046A640845
:10252000640004628469056A24F0F304224342EAE9
:102530000312826125F00A02114341F00101016298
:1025400030BC704730B4046A4FF6EF752C4004621B
:102550008469056A24F4734444EA033343EA02229B
:1025600082614FF65F722A40090141F0100189B281
:102570001143016230BC704770B4046A4FF6FF65C6
:102580002C400462C469056A4FF60C76344022433D
:1025900042EA031292B2C2614FF2FF522A4042EA6B
:1025A000012141F4807189B2016270BC704770B43E
:1025B000046A4EF6FF752C400462C469056A40F651
:1025C000FF46344044EA022242EA033292B2C26138
:1025D00045F6FF722A4042EA013141F4805189B246
:1025E000016270BC7047000070B4002233E0012328
:1025F00093400C681C409C422CD10C79012C01D0DA
:10260000022C14D1540085680326A640B54385608A
:1026100085684E7906FA04F42C438460848824EAA1
:102620000303838083888C79944023438380540000
:102630000323A340DB4305681D40056005680E7950
:10264000A64035430560C5682B40CD7905FA04F4F2
:102650002343C360521C102AC9D370BC70474FF685
:10266000FF7101600021017102214171002181711E
:10267000C171704701857047002A01D081617047A0
:102680000185704710B4CB1000EB830001F0070107
:102690008900036A0F248C40A3430362036A02FA91
:1026A00001F11943016210BC7047000080B5B0F120
:1026B000A04F03D0DFF8541288420BD101214FF014
:1026C0008050FFF768FC00214FF08050BDE80440C7
:1026D000FFF761BCDFF83812884203D0DFF834120C
:1026E00088420BD101214FF00050FFF754FC00212C
:1026F0004FF00050BDE80440FFF74DBC01BDC2687B
:10270000DFF814321A400B681A434B681A438B687F
:102710001A43CB681A430B691A434B691A438B69F6
:102720001A43C260026B1209097F491E51EA021165
:10273000016370470021016041608160C1600161F7
:102740004161816101210177704710B4B0F1A04F60
:1027500003D0DFF8B821904206D1DFF8C02112681B
:10276000DFF8BC311A4005E0DFF8B8211268DFF865
:10277000B0311A400B684C6823438C682343CC6803
:1027800043EA0433097C43EA01211143B0F1A04F2D
:1027900003D0DFF87821904203D1DFF88001016097
:1027A00002E0DFF88001016010BC70470021016089
:1027B00041608160C160017470470029816803D065
:1027C00041F001018160704741F002018160704772
:1027D000816841F0004181607047826822F0804248
:1027E000826082681143816070478068C00F7047C3
:1027F000826822F0405282600029816803D041F053
:1028000080518160704741F0005181607047F0B4A1
:102810000C46154606271F26052D09DA056B12FB07
:1028200007F29640B54304FA02F22A43026323E01A
:102830000A2D0ADA456B521F12FB07F29640B54388
:1028400004FA02F22A43426316E00F2D0ADA856B7E
:102850000A3A12FB07F29640B54304FA02F22A4301
:10286000826309E0C56B0F3A12FB07F29640B5434D
:1028700004FA02F22A43C2630A290EDB82690A398A
:1028800001EB4101826907248C40A2438261826985
:1028900003FA01F1114381610FE042694269382472
:1028A0004D1E05EB4505AC40A2434261426901EB78
:1028B000410103FA01F111434161F0BC70478168A5
:1028C00041F0040181607047816841F0100181602E
:1028D00070470029C16803D041F00101C160704711
:1028E00049084900C1607047C26822F00202C26014
:1028F000C2681143C160704700220068084200D0DE
:10290000012210467047016070470000000100502E
:10291000000400500005005007C0FFFD08030050F0
:10292000E010FCFF080700500901002806D5C24A44
:1029300000F00F00801800F8041C7047BF4A815453
:10294000704710B5401EB0F1807F01D3012010BD4B
:10295000BB4C60600F214FF0FF30FFF7E5FF002018
:10296000A06007202060002010BD00B597B04FF494
:10297000407000F0ADFC00F048F86846FFF762F9DF
:1029800001984FF47A71B0FBF1F0FFF7DAFF012103
:102990004FF40030FFF7DEFA01214FF48020FFF7FB
:1029A000D9FA01214FF40020FFF7D4FA00F00FF913
:1029B00000F006F800F059F800F0E9F817B000BD93
:1029C00000B583B06846FFF74AFE0820009001205A
:1029D0008DF8040000208DF8060002208DF8050017
:1029E00000208DF8070069464FF09040FFF7FCFD8E
:1029F0000420009069464FF09040FFF7F5FD082154
:102A00004FF09040FFF736FE07BD80B5022000F082
:102A100005FD012000F00AFD0020FFF705F9FFF792
:102A20000BF90028FBD1FFF7A3F80120FFF7C4F84A
:102A3000FFF7C8F81120FFF7CFFA0028FAD04FF4BB
:102A4000E0114FF48030FFF7D6F80120FFF7DEF8F1
:102A50001920FFF7C1FA0028FAD00220FFF7E4F8A6
:102A6000FFF7EAF80828FBD101BD10B586B0754C18
:102A7000204600F061FD6846FFF7F1FD03208DF868
:102A800004003020009069464FF09040FFF7ACFD05
:102A900001214FF00050FFF773FA02A800F07DFD0E
:102AA000002003900590029002AA1021204600F019
:102AB00061FD02AA0021204600F05CFD01221021E8
:102AC000204600F071FD01220021204600F06CFD3F
:102AD000B2EE040A00F002F806B010BDDFED4C0AB9
:102AE000B4EE600AF1EE10FA01DBB3EE020AF1EE89
:102AF0000C0AB4EE600AF1EE10FA01D5B0EE600AED
:102B0000DFED440A30EE200ADFED430A9FED431A61
:102B100000EE601A9FED420A21EE000ADFED410A45
:102B200080EE200ABDEEC00A10EE100A024692B2F4
:102B30000021444800F051BD9FED390A00EE900A93
:102B4000F8EE600A9FED381A60EE810A9FED371AA1
:102B500060EE810A9FED361AC0EE810A60EE800AAF
:102B60009FED301AC0EE810A9FED321AF4EE410A51
:102B7000F1EE10FA01DBF0EE400ABDEEE00A10EED5
:102B8000100A024692B200212E4800F01ABD00B58C
:102B900083B04FF48070009002208DF80400002074
:102BA0008DF8060003208DF8050000208DF8070041
:102BB00069464FF09040FFF717FD002208214FF0C3
:102BC0009040FFF75FFD0620FFF724F807BD1E4881
:102BD000016841F0807101601C480021416001687A
:102BE00041F001010160704719480068704710B555
:102BF0000446FFF7F9FF17490968174AB1FBF2F1DC
:102C000001FB0404204600F0F4FC0028FAD110BDBA
:102C100001009041CC0456C1D39B5E3E52B89E3F0A
:102C200000F07F455C8F52406F12833A00C8C8465F
:102C300000007A4401F07F4518ED00E000E400E078
:102C400010E000E000740040FCED00E0001000E047
:102C5000041000E05C17002040420F004FF47A712E
:102C60004843C4E701684FF6FE721140016000213D
:102C7000016041608160C1605349884205D1534879
:102C8000016841F00F01016070475149884205D148
:102C90004E48016841F0F001016070474D4988429B
:102CA00005D14A48016841F47061016070474A49A2
:102CB000884205D14548016841F470410160704780
:102CC0004649884205D14148016841F470210160BC
:102CD00070474349884205D13C48016841F470017E
:102CE000016070473F49884205D13848016841F08A
:102CF0007061016070473C49884205D13B480168DA
:102D000041F00F01016070473949884205D13748C9
:102D1000016841F0F001016070473649884205D1F1
:102D20003248016841F4706101607047324988425D
:102D300005D12E48016841F47041016070472F4968
:102D4000884204D12948016841F47021016070472C
:102D500002686FF30E128B681A430B6A1A430B69F1
:102D60001A434B691A438B691A43CB691A434B6A5E
:102D70001A438B6A1A4302608A8942600A68826039
:102D80004968C160704700210160416081608181B4
:102D9000016141618161C16101624162816270478B
:102DA0000029016803D041F00101016070474FF62E
:102DB000FE72114001607047C10002D50B490860E6
:102DC0007047024908607047080002400400024052
:102DD0001C00024030000240440002405800024003
:102DE0006C000240800002400804024004040240DB
:102DF0001C040240300402404404024058040240D3
:102E000080B53649802000F027FC00F052F84FF0E2
:102E10003041822000F020FC4FF00051832000F070
:102E20001BFC4FF09041852000F016FC4FF48041D0
:102E30008620BDE8044000F00FBC80B5502000F0B3
:102E4000DFFB6420BDE80240FFF708BF80B5B42176
:102E5000022000F03DFC00F40071481E8041C00FCC
:102E600002BD80B500F025F8702000F0C9FB0120FC
:102E7000BDE8024000F0C4BB10B582B0184CB020D1
:102E800000F024FC208000F018F8B12000F01EFCB7
:102E90006080FFF7DBFF002803D14FF6FF70208032
:102EA00060802088ADF800006088ADF802000098CE
:102EB00016BD0D49812000F0CFBB0C49812000F0E8
:102EC000CBBB80B5B521012000F002FC552804D011
:102ED0000448018841F00101018001BD0010141770
:102EE000643A00206E3A0020007B1119007B119A91
:102EF0005FF0FF0C1CEAD05114BF614506E0C11021
:102F0000400721F0E04101F16051704779B900F0CC
:102F1000004100020AD0B0FA80FC00FA0CF001F186
:102F20006051A1EB0C5101EBD021400570474102EB
:102F30000CBF40F4E0016FF000010020704700007A
:102F400000B583B001218DED000B684600F076FCE2
:102F5000401E012811D90021684600F06FFC60B1C5
:102F60000198DDE90023002847BF00200549002023
:102F7000054900F0A1FCCDE900019DED000B03B077
:102F800000BD00000000F0BF0000F03FF446400D1F
:102F900040EAC120490006D200F00EF8004248BFC6
:102FA0006FF00040604700F007F84FF000418842A2
:102FB0008CBF08464042604740F00040490DA1F5F3
:102FC0008061491C05D4D1F11F0154BFC840C0170E
:102FD00070474FF00000704710EE100AF44600F002
:102FE00003F800EE100A6047C0F3C7527E3A09DDCD
:102FF000182A0CDA6FF07F41D14020EA51004018C6
:103000008843704700F0004008BF40F07E50704792
:1030100000B52DED010A82B002980090C0F3C750B0
:10302000FF2807D080B9009840020DD1B7EE000A02
:1030300003B000BD009840020CD10298002809D5C9
:103040009FED060A03B000BD0021B7EE000A02A8FA
:1030500000F0A6FC9DED020A03B000BD00000000D8
:103060004FF4001C1CEB410F94BF1CEB430F09E015
:1030700041EA030C50EA4C0C52EA0C0C03D28B428E
:1030800008BF8242704714BF9942904270470000C7
:1030900080B5504988420BD101214FF48040FEF7A2
:1030A00085FF00214FF48040BDE80440FEF77EBF5D
:1030B000494988420BD101214FF40030FEF781FFCE
:1030C00000214FF40030BDE80440FEF77ABF4349C9
:1030D00088420BD101214FF48020FEF772FF0021BE
:1030E0004FF48020BDE80440FEF76BBF3C498842A6
:1030F0000BD101214FF40020FEF763FF00214FF4B4
:103100000020BDE80440FEF75CBF364988420BD181
:1031100001214FF48010FEF754FF00214FF480107E
:10312000BDE80440FEF74DBF01BD30B597B0044681
:103130000D462068400840002060606820F4405040
:10314000A968084360602068274908406968084307
:10315000E9680843296908432060A06820F44070AA
:1031600069690843A0606846FEF76CFD194884420F
:1031700001D10E980FE01848844201D10F980AE05F
:103180001648844201D1109805E01548844201D1C7
:10319000119800E0129829682268120405D54000B1
:1031A000B0FBF1F201FB120003E0B0FBF1F201FB16
:1031B0001200B0EB510F00D3521C2068000406D55A
:1031C0004FF6F0701040C2F3420141EA0002A281C2
:1031D00017B030BD003801400044004000480040B6
:1031E000004C004000500040F3E9FFFF4FF416513F
:1031F0000160002141608160C1600C2101610021FA
:10320000416170470029016803D041F0010101606C
:1032100070474908490001607047002A826802D05F
:1032200011438160704722EA01018160704710B448
:103230000B469BB21B0A012404FA01F1022B01D1B7
:10324000001D02E0032B00D10830002A026802D0E2
:103250001143016002E022EA0101016010BC7047E5
:10326000826822F4805282608268114381607047D4
:103270000022C069084200D0012210467047016256
:10328000704730B4024600200B469BB21B0A012453
:1032900004FA01F5012B02D113682B4006E0022B42
:1032A00002D153682B4001E093682B40090C04FACB
:1032B00001F1D2691140002B02D0002900D0204634
:1032C00030BC70470122090C02FA01F1016270471B
:1032D0001949084319490860704770B403781A46C1
:1032E0000121C478002C1CD0144B1B6803F4E0634C
:1032F000C3F5E0631B0A4478C3F10405AC4085784C
:103300000F26DE4006EA050323431B010C4C135530
:10331000007800F01F0291400A4A401142F8201044
:1033200007E003F01F0001FA00F00749521141F8CD
:10333000220070BC704700000000FA050CED00E0B0
:1033400000E400E000E100E080E100E08160028054
:103350000021C18081804180704730B40022EFF3AA
:10336000108372B604884588A5420ED28288A24294
:1033700001D30022828082688488A1548188491CFC
:1033800081804188491C4180012283F310881046C6
:1033900030BC70472DE9F04104460D4616462088A2
:1033A0006188401A80B2B04201D2002013E0EFF3EE
:1033B000108772B64FF0000806E018F80510204696
:1033C000FFF7CBFF08F101081FFA88F8B045F4D3E6
:1033D00087F310880120BDE8F0814088704710B461
:1033E0000022EFF3108372B64488002C10D082685C
:1033F000C488A25C0A704188491E4180C188491C6A
:10340000C180028889B2914201D30021C18001228A
:1034100083F31088104610BC70470000DFF8E010FE
:103420000A68920850EA820008607047DFF8D010FE
:103430000028086803D040F010000860704720F0B2
:10344000100008607047DFF8BC00C168090605D5A8
:10345000DFF8B4100160DFF8B41001607047DFF8E6
:10346000B000016841F080010160704738B5044642
:103470004FF4302000F050F8042812D1DFF89050BB
:10348000286840F0020028606C60286840F0400026
:1034900028604FF4302000F03FF8296821F0020145
:1034A000296032BD70B504460D464FF4302000F05F
:1034B00033F804280ED1DFF85860306840F001007E
:1034C000306025804FF4302000F026F8316849083C
:1034D0004900316070BD0F490860704704200D49F4
:1034E0000A68D20701D5012070470A68D20601D5C3
:1034F000022070470968490700D503207047000083
:10350000002002400420024023016745AB89EFCD33
:10351000102002400C20024010B50446FFF7DEFFE9
:1035200002E0FFF7DBFF641E012801D1002CF8D177
:10353000002C00D1052010BD80B50D4988420BD16B
:1035400001214FF00050FEF73CFD00214FF00050EC
:10355000BDE80440FEF735BD01214FF08060FEF765
:1035600030FD00214FF08060BDE80440FEF729BD2A
:103570000074004030B4036840F6FE748C40A343EE
:10358000146855682C4395682C43D268224302FA8C
:1035900001F11943016030BC7047002101604160B6
:1035A00081600221C1607047012303FA01F1002A02
:1035B000026802D011430160704722EA01010160F4
:1035C000704781B0002300930090009808310818DC
:1035D00000900098026001B0704781B00023009312
:1035E000009000981431081800900098026001B013
:1035F000704710B50446FFF7F7FA001BC00F10BD67
:1036000038B504468B4DA8898DF8000000224FF490
:1036100000714FF09040FFF72FF80221284600F08C
:1036200035FB0028F9D02146284600F02BFB01216C
:10363000284600F02BFB0028F9D08021284600F016
:1036400025FB0128F9D001224FF400714FF0904082
:10365000BDE83840FFF710B870B504460D460022AB
:103660004FF400714FF09040FFF706F8714E0221C1
:10367000304600F00BFB0028F9D02146304600F020
:1036800001FB00240BE00221304600F0FFFA002885
:10369000F9D0290E304600F0F5FA2D02641C032CF7
:1036A000F1DB0221304600F0F1FA0028F9D0802148
:1036B000304600F0EBFA0128F9D001224FF40071F6
:1036C0004FF09040BDE87040FEF7D6BF01460220A3
:1036D000F8B504460D46002632464FF400714FF00F
:1036E0009040FEF7C9FF534F0221384600F0CEFA52
:1036F0000028F9D02946384600F0C4FA802138461F
:1037000000F0C4FA0128F9D00121384600F0BEFAD1
:10371000012803D1B8898DF80000F5E735460FE0A0
:10372000FF21384600F0AEFA0121384600F0AEFA2B
:103730000028F9D0384600F0A7FA40EA06266D1CAA
:10374000EDB2A542ECD38021384600F09FFA012863
:10375000F9D001224FF400714FF09040FEF78CFF3A
:103760003046F2BD00BF30B587B04FF460400090E6
:1037700002208DF8040000208DF8060003208DF84B
:10378000050000208DF807002B4D69462846FEF7FE
:103790002BFF4FF40074009401208DF8040069465B
:1037A0004FF09040FEF720FF012221464FF090405D
:1037B000FEF762FF05220F212846FEF763FF052270
:1037C0000E212846FEF75EFF05220D212846FEF752
:1037D00059FF01214FF48040FEF7D2FB02A800F010
:1037E000EDF90020ADF808004FF48270ADF80A0042
:1037F0004FF4E060ADF80C000020ADF80E000120A1
:10380000ADF81000ADF812400820ADF8140000200B
:10381000ADF81600074C02A9204600F0DEF94FF47F
:103820008051204600F025FA0121204600F015FACB
:1038300007B030BD00380040000400484268C2F3C1
:103840000A5240F2FF739A4207D14168090303BF4D
:103850000068002801200220704743685B0004BF15
:103860000368002B25D040F233439A1A521A012ADA
:103870001FDB352A06DB416801F000414160002171
:10388000016013E0012102F01F039940491E9206D6
:1038900007D5426811404A40426002681143002245
:1038A00002E0026811404A40026011B14FF0FF305F
:1038B0007047002070470000F0B44FF0004591EAD7
:1038C000030C44BF6B4000F0E9B900BF841A71EBF0
:1038D000030603D2001BB141121973414FF4001CBF
:1038E0001CEB410F34BF7CEB430443E00C0DA4EB15
:1038F0001356352E50DC45EAC323DB0A45EAC121C5
:10390000C912B6F120050DDD63FA05F6EB4086EA33
:103910000305124218BF45F00105C01851F100011E
:103920000CD213E062FA06F5F2405540F3415A40DA
:10393000B340F3405A408018594107D349085FEA21
:1039400030005FEA350528BF45F0010501F580111B
:10395000420875F1004250F1000041EB0451F0BC07
:103960004FF4001C1CEB410F38BF70470020090DBD
:10397000090570471CEB410F10D252EA43060BD0E9
:10398000BCEB410F05D80C0DAB43661E342EB5DDE4
:1039900002E0AB4380185941F0BC7047F0BC70475F
:1039A00010B5044682B0D4ED000ACDED000A0098AF
:1039B000C0F3C750FF280AD010B14FF0FF300BE022
:1039C000009840020CBF00206FF0010004E0009856
:1039D000400214BF022001208DED000A009AC2F3BC
:1039E000C752FF2A0AD012B14FF0FF320BE0009A03
:1039F00052020CBF00226FF0010204E0009A520252
:103A000014BF02220122030048BF002A43D4022827
:103A100000F0BB80022A08BF84ED000A1BD03AB92F
:103A20009FED5A1AF4EE410AF1EE10FA0CD03DE087
:103A3000012A12D19FED561AF4EE410AF1EE10FA66
:103A400018BF84ED000A46D100F0DEF921210160A3
:103A50006FF000402060022016BD70B984ED000AAE
:103A6000204600F0D7F9040018BF012C40F08C80EC
:103A700000F0CAF92221016086E09FED441AF4EEBD
:103A8000410AF1EE10FA0DD1DFED400A20EE200AD6
:103A900084ED000A1FE09FED3F1AF4EE410AF1EEBB
:103AA00010FA07D5DFED3C0A20EE200A84ED000A6B
:103AB000002016BD9FED391AF4EE410AF1EE10FA1E
:103AC0000BDBDFED320A20EE200A84ED000A00F065
:103AD0009BF922210160012016BD9FED311A20EED5
:103AE000811AB5EE401AF1EE10FA4CBFFEEE001A44
:103AF000F6EE001A31EE211ABDEEC11A11EE100ACF
:103B0000B8EEC11ADFED271A41EE610ADFED261A81
:103B100041EE610A9FED251AF4EE410AF1EE10FA2A
:103B200006DB9FED231AF4EE410AF1EE10FA1DD4E4
:103B30009FED202AF6EE002A20EEA01ADFED1E1AD5
:103B400041EE022A61EE211A62EEA00A31EEA01ABD
:103B500071EEE00AB7EE002AF7EE001A31EE021A13
:103B600070EEA10AC1EE200A20EE800A091884ED49
:103B7000000A204600F04EF9040018BF012C03D1C2
:103B800000F042F922210160204616BD0000807F2E
:103B9000000080FF000065C30000000001006543D5
:103BA0003BAAB83F0060313FBFBF9039000000B36F
:103BB000010000331354083C9EBFCC3D002101801E
:103BC00041804FF4E06181800021C1800181418109
:103BD0008181C18107210182704710B44A88B2F502
:103BE000827F18D1038803F441530C8823431A437E
:103BF000CB881A430B891A434B891A438B891A4382
:103C0000CB891A43028082884FF2FF031A408B88C7
:103C10001A43828018E082884FF2FF031A408B8893
:103C20001A438280028802F441520B881A434B885F
:103C30001A43CB881A430B891A434B891A438B8941
:103C40001A43CB891A430280828B4FF2FF731A40CA
:103C50008283098A018210BC70470029018803D041
:103C600041F04001018070474FF6BF721140018062
:103C7000704782884EF6FF731A4082808288114313
:103C80008180704701737047007B70470022008974
:103C9000084200D00122104670470000841A71EBE0
:103CA000030604D26E40001BB141121973414FF458
:103CB000001C1CEB410F34BF7CEB430684E00C0D71
:103CC000A4EB1356362E7DDC012E43DC45EAC323DC
:103CD00043EA525312BFD20292025B08240545EA1E
:103CE000C12141EA5051D2EBC020994125D407D1DE
:103CF000B0FA80F610FA06F164D00020203608E011
:103D0000B1FA81F6B140C6F1200220FA02F2114365
:103D1000B0404FEAF474B4EB465434F001064FEA75
:103D200074040AD8D6F50016760D04F00044F0406D
:103D300061FA06F25040F1404840C00A40EA415062
:103D400021F0004128BF5FEA500550F1000044EB2C
:103D5000D12137E045EAC323DB0A45EAC121C90A7C
:103D6000B6F120050EDD42EA0242120CC5F1200632
:103D700003FA06F6EB4042EA06056D42984161F10E
:103D800000010DE062FA06F5F240554063FA06FCC8
:103D900082EA0C02F3405A406D42904161EB03010C
:103DA00011F4801F05D1641E620502D06D004041F0
:103DB000494121F48011430875F1004350F100009E
:103DC00041EB0451F0BC70471CEB410F15D223F0BE
:103DD000004352EA43060BD04FEA4C0CBCEB410FB8
:103DE00004D80C0D661E342EB7DDEBE7801A99411E
:103DF00050EA410608BF0021E4E708BF1CEB430F6F
:103E000028BF6FF00001DDE7014800F065B8000051
:103E10006017002038B504460D4620684000000EAB
:103E2000FF2804D12068400216D0022032BD20B9FC
:103E3000204600F052F8012848DA012D0EDBC0F1CF
:103E4000FF018D420AD3206800284CBF9FED200A55
:103E50009FED200A84ED000A012032BD4142A942B3
:103E6000216806DA21F0FF41401941EAC050206084
:103E700026E022685202401E520A451942F400020E
:103E800005F1180001F000412260182828BF2160C8
:103E90001CD200206A4206D02068C2F1200398405C
:103EA0002368D340236022680A43B0F1004F2260A8
:103EB00003D808D12078C00705D52068401C2060B1
:103EC0004FF0FF3032BD20688842F9D1002032BD6A
:103ED000000080FF0000807F7047026802F000430E
:103EE00001215202520A02D106E05200491E5FEA45
:103EF000022CFAD55202520A1A4302600846704751
:103F000080B500F0D0F800200AE04FF44871A44AD0
:103F100022F8101040F6C411A24A22F81010401CDA
:103F2000B0F5347FF1DB01BD38B59F4C9F48007878
:103F300000F03900411E8941C90F217060880028B6
:103F400021D0207800281ED0E06880680090FDF71E
:103F500081FA00250BE0E06800EB8501498830F824
:103F60002500FDF760FA216921F815006D1CB5F5F3
:103F7000347FF0DB00F08BF84FF434716069FCF7AC
:103F80007DFD0020608031BD38B5894C208840F02F
:103F900004002080874D01212846FEF786FA00287C
:103FA00016D001212846FEF78CFA7F4890ED010AD1
:103FB000F6EE000A30EE200A80ED010A00780128B2
:103FC00001D100F007F820884FF6FB7108402080EF
:103FD00031BD000010B5DFED6E0AB4EE600AF1EEFF
:103FE00010FA03DBDFED6B0A30EE200AF0EE000A78
:103FF00020EE200AFEF7F0FFBDEEC00A10EE104AD8
:10400000FEF73AFF68498968A4B241F82400BDE888
:104010001040FEF726BF000000EE100AB8EE400A7E
:10402000DFED5D0A20EE200A5F4880ED010A00EE18
:10403000101AB8EE400ADFED590A80EE200ABDEEF4
:10404000C00A10EE100A80B274E010B5564C524807
:10405000606000F005F801206080BDE8104082E05B
:10406000514800F65831826800F118039A4204D191
:10407000816000F11801C16003E000F11802826064
:10408000C16000224FF434618068FCF7F5BD4548FB
:104090004349454A13698B4202D11061516170470F
:1040A0001161506170471FB501214FF40050FDF7B9
:1040B0005CFF01A8FEF7BBF83F48006800F082F8FB
:1040C00000223E4B00F08CF800223D4BFFF7F4FB42
:1040D000FEF75CFFADF804004FF6FF700290002081
:1040E000ADF80C00ADF80600324C01A92046FEF7F1
:1040F00052F801212046FEF7A7F801212046FEF7DD
:10410000E0F9012211462046FEF7C4F92C208DF873
:1041100000000F208DF8010000208DF80200012022
:104120008DF803006846FFF7D8F801212046FEF716
:1041300097F81FBD38B505461E4C20884FF6FE7116
:104140000840208000212046FEF77AF8691E2046AC
:10415000FEF778F8606940F001006061208840F067
:104160000100208031BD10B5124C20884FF6FE7141
:104170000840208000212046FEF762F8606940F088
:1041800001006061208840F00100208010BD000027
:104190000100B4430000B4C3143BB140143B3141AF
:1041A000D8250020782B0020140000206E3A002033
:1041B00014000048003401405C17002080842E4128
:1041C0000000F0BF010000BF09D0B0FA80F18840C4
:1041D000C91CC1F58461090501EBD0214005704778
:1041E0002DE9F04140F2FF7581EA030C0CF0004C20
:1041F00015EA11541DBF15EA1357AC42AF42E9E06E
:10420000BC41C1F31301C3F31303801A994143F472
:10421000801304D2641E4000494180185941C902EC
:1042200041EA5051B1FBF3F603FB1611A2FB0675F0
:10423000D7EBC020A94102D2761E80185941C9028D
:1042400041EA5051B1FBF3FE03FB1E11A2FB0E75B8
:10425000D7EBC020A94103D2AEF1010E801859411D
:10426000890241EA9051760546EA8E2EB1FBF3F6BB
:1042700003FB1611A2FB0675D7EB8020A94102D2E1
:10428000761E80185941C90241EA50514EEA060E85
:10429000B1FBF3F603FB1611A2FB0675D7EBC020AA
:1042A000A94102D2761E80185941C90241EA5051F3
:1042B000B1FBF3F703FB1711A2FB0735D3EBC020CB
:1042C000A94167F100070CBF004247F0010766F300
:1042D000D5274FEA1E31B80814F5806414DDBD07F8
:1042E00075F1004250EB0E5051EB045111F5801F57
:1042F0005CBF41EA0C01BDE8F0814CF07F6141F008
:10430000E0410020BDE8F081BD076D0840EA0E5095
:1043100041F48011D4F10104B4F120060ADAC4F1A9
:1043200020060200E04001FA06F3E1401843B240E3
:1043300015430EE0342C14DCC6F1200445EA400598
:104340006D0820FA06F2154321FA06F0A1400D434C
:10435000002175F1004250F1000051EB0C01BDE865
:10436000F08100205FEA0C01BDE8F081CFB992181E
:104370005B41B3FA83F704BFB2FA82F6BF190B3F71
:10438000B7F120062FBF02FA06F3BB40C7F12006A3
:1043900022FA06F638BF3343BA401CB1E419641E52
:1043A0002FE77F4231F00041B1FA81F404BFB0FA47
:1043B00080F6A4190B3CB4F120062FBF00FA06F1D9
:1043C000A140C4F1200620FA06F638BF3143A040D0
:1043D0003C1B16E7AC421ABF05EA1357AF4214E084
:1043E00050EA41061CBF52EA4306BFE750EA4107C4
:1043F000304661461CBF41EA0551BDE8F08152EAF2
:10440000430C08BFC143BDE8F08100204FF4001603
:1044100016EB410F98BF16EB430F08BF16EB410F89
:1044200024BFC14305E016EB430F0CBF61464CEAC5
:104430000551BDE8F081000080B500F06DF8BDE8E1
:1044400001409DE038B58F4D04212846FEF72DF838
:1044500000282DD004212846FEF733F88A4C6088C6
:1044600020802846FDF7E4FF60806088218888422C
:1044700002D3401AA08004E04FF6FF72511A401890
:10448000A080E088401CE080804800682061A0880F
:1044900000F0D5F8002805D000F00BF8BDE8314059
:1044A000FFF7D3BDA188E088BDE83440FFF7B4BD75
:1044B00031BD10B576480188734CE288412A03D09B
:1044C00041F00801018003E04FF6F77211400180CE
:1044D0000120E080FEF788FB6E4909686E4AB1FB57
:1044E000F2F1E268801AB0FBF1F0A060FEF77CFB0D
:1044F000E06010BD66480188644A1268624B1B691F
:10450000D21A062A03D341F01001018070474FF6FA
:10451000EF7211400180704700B589B001214FF45E
:104520000030FDF717FD6846FEF799F8012000906E
:1045300003208DF8040000208DF8070069464FF035
:104540009040FEF751F801210846FDF70EFD02A844
:1045500000F0BFF800200390102002904FF410509C
:104560000490042008904FF40030079002A918200E
:1045700000F09AF80121182000F0B5F809B000BD4C
:1045800010B588B001214FF40060FDF7EEFC04A8DF
:10459000FDF74DFE3F480068FFF714FE00223F4B39
:1045A000FFF71EFE00223E4BFFF786F9FEF7EEFCFA
:1045B000ADF810004FF6FF7005900020ADF8180020
:1045C000ADF812002F4C04A92046FDF7E4FD01A828
:1045D000FDF725FF0420ADF804000020ADF806002B
:1045E0000120ADF808000020ADF80A000C20ADF85D
:1045F0000C0001A92046FDF7E6FE01212046FDF74B
:1046000023FE04212046FDF75CFF01220421204601
:10461000FDF740FF1B208DF800000A208DF80100F7
:1046200000208DF8020001208DF803006846FEF797
:1046300054FE01212046FDF713FE08B010BD1949B4
:104640000A7801EB42039880521C02F003020A70C0
:104650008A88CB8813FA82F20B8912FA83F249898D
:1046600012FA81F1800080B24A1001EB9271891038
:1046700089B290FBF1F080B2052801DB0120704780
:1046800000207047002C0140283A0020703A00209A
:104690006E3A00205C17002040420F0080842E41BB
:1046A0000000F0BF503A0020154A1018026802F0CE
:1046B00003020B681A434B681A438B681A430B6951
:1046C0001A43CB681A434B691A4389691143016045
:1046D00070470021016041608160C16001614161FA
:1046E0000C2181617047064A10180029016803D027
:1046F00041F00101016070474908490001607047BD
:104700001C00014080B53A48016841F47001016025
:104710003848016841F0010101604168364A1140A2
:1047200041600168354A11400160016821F480212F
:104730000160416821F4FE014160C16A0909090173
:10474000C162016B2E4A114001630021816000F0BB
:1047500005F84FF000602B49086001BD82B00020D1
:10476000019000902348016841F4803101600168A4
:1047700001F4003100910199491C0191009900292F
:1047800003D10199B1F5A04FF1D10168490C01F0B5
:10479000010100910099012926D112211A4A1160C4
:1047A0004168416041684160416841F48061416015
:1047B000416821F47C114160416841F4E811416095
:1047C000016841F08071016001688901FCD5416890
:1047D000890889004160416841F0020141604168F7
:1047E00001F00C010829FAD102B070470000000066
:1047F00088ED00E0001002400CC07FF8FFFFF6FEDD
:10480000CCFC00FF08ED00E00020024038B5FEF7C8
:10481000ACF8FCF79DFA00F04AF8FCF7FFFAFDF758
:1048200065F8FFF709FEFEF79DFFFEF706FBFEF7B2
:1048300048FBFCF7E9FEFFF763FBFCF73DFDFEF7E5
:10484000DFFA4FF4FA70FEF709FA1C4C1C4D286889
:104850006168884208D32868401C6060FFF764FBE9
:10486000FDF7FCF8FCF7ABF82868A168884206D38E
:1048700028680A30A060FCF74AFCFFF73BFE286876
:10488000E1688842E3D328686430E0600D4801881D
:1048900081F00801018094ED040AFEF71FF92088D9
:1048A000FEF74AF9FCF7C8FEFCF728FDCFE70348FE
:1048B00005494A680261098A01807047C8160020CC
:1048C000703A002014000048FC3900207047FEE7D1
:1048D000FEE7FEE7FEE77047704770471148016842
:1048E000491C0160704738B50F4C104D29462046D1
:1048F000FEF7C7FC002807D029462046FEF7E2FC59
:10490000A08CC0B2FDF7E0F808212046FEF7B0FC0D
:10491000002805D008212046BDE83440FEF7AFBC92
:1049200031BD0000703A0020004400400501050040
:1049300019E050F8041BCB0744BFA9F10103591833
:10494000121F0023042A41F8043BF9D25FEA827C5B
:104950000B4604D54FF0000CA1F800C09B1CD107FA
:1049600044BF0021197050F8042B002AE1D1704790
:1049700030B5016842688468091801EB5203D20718
:1049800048BF4C440C30994200D130BD11F9012B85
:1049900011F8015B002A04F8015B02D5521CF9D121
:1049A000F1E7521EF4D5EEE710B507497944183106
:1049B000064C7C44163404E00A68081D51188847E8
:1049C0000146A142F8D110BD2C00000048000000B3
:1049D0004EF68851CEF20001086840F4700008607D
:1049E000BFF34F8FBFF36F8F4FF00070E1EE100AEF
:1049F000704700003DFFFFFF0C1B0000681F0020F8
:104A0000000000006DFFFFFF60010000A601000034
:104A10000000002000F00BF8002801D0FFF7C4FFD1
:104A20000020C046C046FFF7F1FE00F002F801206A
:104A3000704700F001B800000746384600F002F861
:104A4000FBE700002021090326311820ABBEF9E75F
:104A5000014880470148004705470008614A0008AF
:104A6000C046C046FFF7B4FFFFF7D4FFFFF7FEBF15
:104A7000FFF7FEBFFFF7FEBFFFF7FEBFFFF7FEBF6A
:104A8000FFF7FEBFFFF7FEBFFFF7FEBFFFF7FEBF5A
:104A9000FFF7FEBFFFF7FEBFFFF7FEBFFFF7FEBF4A
:104AA000FFF7FEBFFFF7FEBFFFF7FEBFFFF7FEBF3A
:104AB000FFF7FEBFFFF7FEBFFFF7FEBFFFF7FEBF2A
:104AC000FFF7FEBFFFF7FEBFFFF7FEBFFFF7FEBF1A
:104AD000FFF7FEBFFFF7FEBFFFF7FEBFFFF7FEBF0A
:104AE000FFF7FEBFFFF7FEBFFFF7FEBFFFF7FEBFFA
:104AF000FFF7FEBFFFF7FEBFFFF7FEBFFFF7FEBFEA
:104B0000FFF7FEBFFFF7FEBFFFF7FEBFFFF7FEBFD9
:104B1000FFF7FEBFFFF7FEBFFFF7FEBFFFF7FEBFC9
:104B2000FFF7FEBFFFF7FEBFFFF7FEBFFFF7FEBFB9
:104B3000FFF7FEBFFFF7FEBFFFF7FEBFFFF7FEBFA9
:104B4000FFF7FEBFFFF7FEBFFFF7FEBFFFF7FEBF99
:104B5000FFF7FEBFFFF7FEBFFFF7FEBFFFF7FEBF89
:104B6000FFF7FEBFFFF7FEBF02000019F90001B416
:104B700042F0000F2C0000206C0B0020D8250020F4
:104B8000782B00208100810081008100810081005C
:104B9000810081008100810081008100810081000D
:104BA00081008100810081008100810081008100FD
:104BB00081008100810081008100810081008100ED
:104BC00081008100810081008100810081008100DD
:104BD0008100810081008100810081008100C90085
:104BE0000064F30004CDCC4C3E32EF00012041FCC8
:104BF00000015401F80001C03FFA00017041D400E7
:104C0000230102030401020304060708090100024C
:104C1000000400060008000A000C001000200040FC
:104C20000080000001F0000B0102030406070809E0
:0B4C300000A24A04FC0003190054011C
:0400000508004A6144
:00000001FF
